{
  "_format": "hh-sol-artifact-1",
  "contractName": "DaraAnchor",
  "sourceName": "contracts/DaraAnchor.sol",
  "abi": [
    {
      "anonymous": false,
      "inputs": [
        {
          "indexed": true,
          "internalType": "uint256",
          "name": "id",
          "type": "uint256"
        },
        {
          "indexed": true,
          "internalType": "bytes32",
          "name": "root",
          "type": "bytes32"
        },
        {
          "indexed": true,
          "internalType": "bytes32",
          "name": "manifestHash",
          "type": "bytes32"
        },
        {
          "indexed": false,
          "internalType": "bytes32",
          "name": "projectId",
          "type": "bytes32"
        },
        {
          "indexed": false,
          "internalType": "address",
          "name": "uploader",
          "type": "address"
        },
        {
          "indexed": false,
          "internalType": "uint256",
          "name": "timestamp",
          "type": "uint256"
        }
      ],
      "name": "DatasetAnchored",
      "type": "event"
    },
    {
      "inputs": [
        {
          "internalType": "bytes32",
          "name": "root",
          "type": "bytes32"
        },
        {
          "internalType": "bytes32",
          "name": "manifestHash",
          "type": "bytes32"
        },
        {
          "internalType": "bytes32",
          "name": "projectId",
          "type": "bytes32"
        }
      ],
      "name": "anchor",
      "outputs": [],
      "stateMutability": "nonpayable",
      "type": "function"
    },
    {
      "inputs": [
        {
          "internalType": "uint256",
          "name": "",
          "type": "uint256"
        }
      ],
      "name": "datasets",
      "outputs": [
        {
          "internalType": "uint256",
          "name": "id",
          "type": "uint256"
        },
        {
          "internalType": "bytes32",
          "name": "root",
          "type": "bytes32"
        },
        {
          "internalType": "bytes32",
          "name": "manifestHash",
          "type": "bytes32"
        },
        {
          "internalType": "bytes32",
          "name": "projectId",
          "type": "bytes32"
        },
        {
          "internalType": "address",
          "name": "uploader",
          "type": "address"
        },
        {
          "internalType": "uint256",
          "name": "timestamp",
          "type": "uint256"
        },
        {
          "internalType": "bool",
          "name": "verified",
          "type": "bool"
        },
        {
          "internalType": "uint256",
          "name": "citationCount",
          "type": "uint256"
        }
      ],
      "stateMutability": "view",
      "type": "function"
    },
    {
      "inputs": [
        {
          "internalType": "address",
          "name": "owner",
          "type": "address"
        }
      ],
      "name": "getDatasetsByOwner",
      "outputs": [
        {
          "internalType": "uint256[]",
          "name": "",
          "type": "uint256[]"
        }
      ],
      "stateMutability": "view",
      "type": "function"
    },
    {
      "inputs": [],
      "name": "nextId",
      "outputs": [
        {
          "internalType": "uint256",
          "name": "",
          "type": "uint256"
        }
      ],
      "stateMutability": "view",
      "type": "function"
    },
    {
      "inputs": [
        {
          "internalType": "address",
          "name": "",
          "type": "address"
        },
        {
          "internalType": "uint256",
          "name": "",
          "type": "uint256"
        }
      ],
      "name": "ownerDatasets",
      "outputs": [
        {
          "internalType": "uint256",
          "name": "",
          "type": "uint256"
        }
      ],
      "stateMutability": "view",
      "type": "function"
    }
  ],
  "bytecode": "0x608060405234801561001057600080fd5b506108a0806100206000396000f3fe608060405234801561001057600080fd5b50600436106100575760003560e01c80631cff85e11461005c57806361b8ce8c14610093578063668e84be146100b15780636ed37a1d146100e1578063e6598f13146100fd575b600080fd5b6100766004803603810190610071919061047a565b61012d565b60405161008a98979695949392919061052b565b60405180910390f35b61009b6101a2565b6040516100a891906105a9565b60405180910390f35b6100cb60048036038101906100c691906105f0565b6101a8565b6040516100d891906105a9565b60405180910390f35b6100fb60048036038101906100f6919061065c565b6101d9565b005b610117600480360381019061011291906106af565b6103a8565b604051610124919061079a565b60405180910390f35b60016020528060005260406000206000915090508060000154908060010154908060020154908060030154908060040160009054906101000a900473ffffffffffffffffffffffffffffffffffffffff16908060050154908060060160009054906101000a900460ff16908060070154905088565b60005481565b600260205281600052604060002081815481106101c457600080fd5b90600052602060002001600091509150505481565b600080600081546101e9906107eb565b91905081905590506040518061010001604052808281526020018581526020018481526020018381526020013373ffffffffffffffffffffffffffffffffffffffff1681526020014281526020016001151581526020016000815250600160008381526020019081526020016000206000820151816000015560208201518160010155604082015181600201556060820151816003015560808201518160040160006101000a81548173ffffffffffffffffffffffffffffffffffffffff021916908373ffffffffffffffffffffffffffffffffffffffff16021790555060a0820151816005015560c08201518160060160006101000a81548160ff02191690831515021790555060e08201518160070155905050600260003373ffffffffffffffffffffffffffffffffffffffff1673ffffffffffffffffffffffffffffffffffffffff1681526020019081526020016000208190806001815401808255809150506001900390600052602060002001600090919091909150558284827fb3889c6644c490ddb5d8d8c5a04c0b567e27f5a6a150cf071a613a35bfdeaafc85334260405161039a93929190610833565b60405180910390a450505050565b6060600260008373ffffffffffffffffffffffffffffffffffffffff1673ffffffffffffffffffffffffffffffffffffffff16815260200190815260200160002080548060200260200160405190810160405280929190818152602001828054801561043357602002820191906000526020600020905b81548152602001906001019080831161041f575b50505050509050919050565b600080fd5b6000819050919050565b61045781610444565b811461046257600080fd5b50565b6000813590506104748161044e565b92915050565b6000602082840312156104905761048f61043f565b5b600061049e84828501610465565b91505092915050565b6104b081610444565b82525050565b6000819050919050565b6104c9816104b6565b82525050565b600073ffffffffffffffffffffffffffffffffffffffff82169050919050565b60006104fa826104cf565b9050919050565b61050a816104ef565b82525050565b60008115159050919050565b61052581610510565b82525050565b600061010082019050610541600083018b6104a7565b61054e602083018a6104c0565b61055b60408301896104c0565b61056860608301886104c0565b6105756080830187610501565b61058260a08301866104a7565b61058f60c083018561051c565b61059c60e08301846104a7565b9998505050505050505050565b60006020820190506105be60008301846104a7565b92915050565b6105cd816104ef565b81146105d857600080fd5b50565b6000813590506105ea816105c4565b92915050565b600080604083850312156106075761060661043f565b5b6000610615858286016105db565b925050602061062685828601610465565b9150509250929050565b610639816104b6565b811461064457600080fd5b50565b60008135905061065681610630565b92915050565b6000806000606084860312156106755761067461043f565b5b600061068386828701610647565b935050602061069486828701610647565b92505060406106a586828701610647565b9150509250925092565b6000602082840312156106c5576106c461043f565b5b60006106d3848285016105db565b91505092915050565b600081519050919050565b600082825260208201905092915050565b6000819050602082019050919050565b61071181610444565b82525050565b60006107238383610708565b60208301905092915050565b6000602082019050919050565b6000610747826106dc565b61075181856106e7565b935061075c836106f8565b8060005b8381101561078d5781516107748882610717565b975061077f8361072f565b925050600181019050610760565b5085935050505092915050565b600060208201905081810360008301526107b4818461073c565b905092915050565b7f4e487b7100000000000000000000000000000000000000000000000000000000600052601160045260246000fd5b60006107f682610444565b91507fffffffffffffffffffffffffffffffffffffffffffffffffffffffffffffffff8203610828576108276107bc565b5b600182019050919050565b600060608201905061084860008301866104c0565b6108556020830185610501565b61086260408301846104a7565b94935050505056fea26469706673582212202e25ab033b2816777ad2a1c64d82cf1f18a861e20765742a40a20e6db7394f6964736f6c63430008140033",
  "linkReferences": {},
  "deployedLinkReferences": {}
}