{
  "_format": "hh3-artifact-1",
  "contractName": "DaraAnchor",
  "sourceName": "contracts/DaraAnchor.sol",
  "abi": [
    {
      "anonymous": false,
      "inputs": [
        {
          "indexed": true,
          "internalType": "uint256",
          "name": "id",
          "type": "uint256"
        },
        {
          "indexed": true,
          "internalType": "bytes32",
          "name": "root",
          "type": "bytes32"
        },
        {
          "indexed": true,
          "internalType": "bytes32",
          "name": "manifestHash",
          "type": "bytes32"
        },
        {
          "indexed": false,
          "internalType": "bytes32",
          "name": "projectId",
          "type": "bytes32"
        },
        {
          "indexed": false,
          "internalType": "address",
          "name": "uploader",
          "type": "address"
        },
        {
          "indexed": false,
          "internalType": "uint256",
          "name": "timestamp",
          "type": "uint256"
        }
      ],
      "name": "DatasetAnchored",
      "type": "event"
    },
    {
      "inputs": [
        {
          "internalType": "bytes32",
          "name": "root",
          "type": "bytes32"
        },
        {
          "internalType": "bytes32",
          "name": "manifestHash",
          "type": "bytes32"
        },
        {
          "internalType": "bytes32",
          "name": "projectId",
          "type": "bytes32"
        }
      ],
      "name": "anchor",
      "outputs": [],
      "stateMutability": "nonpayable",
      "type": "function"
    },
    {
      "inputs": [
        {
          "internalType": "uint256",
          "name": "",
          "type": "uint256"
        }
      ],
      "name": "datasets",
      "outputs": [
        {
          "internalType": "uint256",
          "name": "id",
          "type": "uint256"
        },
        {
          "internalType": "bytes32",
          "name": "root",
          "type": "bytes32"
        },
        {
          "internalType": "bytes32",
          "name": "manifestHash",
          "type": "bytes32"
        },
        {
          "internalType": "bytes32",
          "name": "projectId",
          "type": "bytes32"
        },
        {
          "internalType": "address",
          "name": "uploader",
          "type": "address"
        },
        {
          "internalType": "uint256",
          "name": "timestamp",
          "type": "uint256"
        },
        {
          "internalType": "bool",
          "name": "verified",
          "type": "bool"
        },
        {
          "internalType": "uint256",
          "name": "citationCount",
          "type": "uint256"
        }
      ],
      "stateMutability": "view",
      "type": "function"
    },
    {
      "inputs": [
        {
          "internalType": "address",
          "name": "owner",
          "type": "address"
        }
      ],
      "name": "getDatasetsByOwner",
      "outputs": [
        {
          "internalType": "uint256[]",
          "name": "",
          "type": "uint256[]"
        }
      ],
      "stateMutability": "view",
      "type": "function"
    },
    {
      "inputs": [],
      "name": "nextId",
      "outputs": [
        {
          "internalType": "uint256",
          "name": "",
          "type": "uint256"
        }
      ],
      "stateMutability": "view",
      "type": "function"
    },
    {
      "inputs": [
        {
          "internalType": "address",
          "name": "",
          "type": "address"
        },
        {
          "internalType": "uint256",
          "name": "",
          "type": "uint256"
        }
      ],
      "name": "ownerDatasets",
      "outputs": [
        {
          "internalType": "uint256",
          "name": "",
          "type": "uint256"
        }
      ],
      "stateMutability": "view",
      "type": "function"
    }
  ],
  "bytecode": "0x608060405234801561000f575f80fd5b506104618061001d5f395ff3fe608060405234801561000f575f80fd5b5060043610610055575f3560e01c80631cff85e11461005957806361b8ce8c14610102578063668e84be146101185780636ed37a1d1461012b578063e6598f1314610140575b5f80fd5b6100b7610067366004610321565b600160208190525f9182526040909120805491810154600282015460038301546004840154600585015460068601546007909601549495939492936001600160a01b0390921692909160ff169088565b6040805198895260208901979097529587019490945260608601929092526001600160a01b0316608085015260a0840152151560c083015260e0820152610100015b60405180910390f35b61010a5f5481565b6040519081526020016100f9565b61010a610126366004610353565b610160565b61013e61013936600461037b565b61018b565b005b61015361014e3660046103a4565b6102b8565b6040516100f991906103c4565b6002602052815f5260405f208181548110610179575f80fd5b905f5260205f20015f91509150505481565b5f805f815461019990610407565b918290555060408051610100810182528281526020808201888152828401888152606080850189815233608087018181524260a08901818152600160c08b018181525f60e08d018181528f8252838d528e82209d518e559a518d84015598516002808e0191909155965160038d0155935160048c0180546001600160a01b0319166001600160a01b03909216919091179055905160058b0155915160068a01805460ff1916911515919091179055955160079098019790975580845290855286832080549687018155835291849020909401869055845188815292830152928101929092529192508491869184917fb3889c6644c490ddb5d8d8c5a04c0b567e27f5a6a150cf071a613a35bfdeaafc910160405180910390a450505050565b6001600160a01b0381165f9081526002602090815260409182902080548351818402810184019094528084526060939283018282801561031557602002820191905f5260205f20905b815481526020019060010190808311610301575b50505050509050919050565b5f60208284031215610331575f80fd5b5035919050565b80356001600160a01b038116811461034e575f80fd5b919050565b5f8060408385031215610364575f80fd5b61036d83610338565b946020939093013593505050565b5f805f6060848603121561038d575f80fd5b505081359360208301359350604090920135919050565b5f602082840312156103b4575f80fd5b6103bd82610338565b9392505050565b602080825282518282018190525f9190848201906040850190845b818110156103fb578351835292840192918401916001016103df565b50909695505050505050565b5f6001820161042457634e487b7160e01b5f52601160045260245ffd5b506001019056fea26469706673582212206c84fccf6e5cf7e55ff933ee09d45cecff73d6fa792683448c7a6c9597d817cf64736f6c63430008140033",
  "linkReferences": {},
  "deployedLinkReferences": {},
  "immutableReferences": {},
  "inputSourceName": "project/contracts/DaraAnchor.sol",
  "buildInfoId": "solc-0_8_20-60aa20fccfedd320b0822fa3fac9e56bea75914d"
}