{
  "_format": "hh3-artifact-1",
  "contractName": "DARAProjects",
  "sourceName": "contracts/DARAProjects.sol",
  "abi": [
    {
      "inputs": [],
      "stateMutability": "nonpayable",
      "type": "constructor"
    },
    {
      "inputs": [],
      "name": "AccessControlBadConfirmation",
      "type": "error"
    },
    {
      "inputs": [
        {
          "internalType": "address",
          "name": "account",
          "type": "address"
        },
        {
          "internalType": "bytes32",
          "name": "neededRole",
          "type": "bytes32"
        }
      ],
      "name": "AccessControlUnauthorizedAccount",
      "type": "error"
    },
    {
      "inputs": [],
      "name": "ReentrancyGuardReentrantCall",
      "type": "error"
    },
    {
      "anonymous": false,
      "inputs": [
        {
          "indexed": true,
          "internalType": "bytes32",
          "name": "projectId",
          "type": "bytes32"
        },
        {
          "indexed": true,
          "internalType": "address",
          "name": "member",
          "type": "address"
        },
        {
          "indexed": true,
          "internalType": "bytes32",
          "name": "role",
          "type": "bytes32"
        },
        {
          "indexed": false,
          "internalType": "address",
          "name": "addedBy",
          "type": "address"
        },
        {
          "indexed": false,
          "internalType": "uint256",
          "name": "timestamp",
          "type": "uint256"
        }
      ],
      "name": "MemberAdded",
      "type": "event"
    },
    {
      "anonymous": false,
      "inputs": [
        {
          "indexed": true,
          "internalType": "bytes32",
          "name": "projectId",
          "type": "bytes32"
        },
        {
          "indexed": true,
          "internalType": "address",
          "name": "member",
          "type": "address"
        },
        {
          "indexed": false,
          "internalType": "address",
          "name": "removedBy",
          "type": "address"
        },
        {
          "indexed": false,
          "internalType": "uint256",
          "name": "timestamp",
          "type": "uint256"
        }
      ],
      "name": "MemberRemoved",
      "type": "event"
    },
    {
      "anonymous": false,
      "inputs": [
        {
          "indexed": true,
          "internalType": "bytes32",
          "name": "projectId",
          "type": "bytes32"
        },
        {
          "indexed": false,
          "internalType": "string",
          "name": "name",
          "type": "string"
        },
        {
          "indexed": true,
          "internalType": "address",
          "name": "creator",
          "type": "address"
        },
        {
          "indexed": false,
          "internalType": "uint256",
          "name": "timestamp",
          "type": "uint256"
        }
      ],
      "name": "ProjectCreated",
      "type": "event"
    },
    {
      "anonymous": false,
      "inputs": [
        {
          "indexed": true,
          "internalType": "bytes32",
          "name": "projectId",
          "type": "bytes32"
        },
        {
          "indexed": false,
          "internalType": "string",
          "name": "name",
          "type": "string"
        },
        {
          "indexed": false,
          "internalType": "string",
          "name": "description",
          "type": "string"
        },
        {
          "indexed": false,
          "internalType": "address",
          "name": "updatedBy",
          "type": "address"
        },
        {
          "indexed": false,
          "internalType": "uint256",
          "name": "timestamp",
          "type": "uint256"
        }
      ],
      "name": "ProjectUpdated",
      "type": "event"
    },
    {
      "anonymous": false,
      "inputs": [
        {
          "indexed": true,
          "internalType": "bytes32",
          "name": "role",
          "type": "bytes32"
        },
        {
          "indexed": true,
          "internalType": "bytes32",
          "name": "previousAdminRole",
          "type": "bytes32"
        },
        {
          "indexed": true,
          "internalType": "bytes32",
          "name": "newAdminRole",
          "type": "bytes32"
        }
      ],
      "name": "RoleAdminChanged",
      "type": "event"
    },
    {
      "anonymous": false,
      "inputs": [
        {
          "indexed": true,
          "internalType": "bytes32",
          "name": "projectId",
          "type": "bytes32"
        },
        {
          "indexed": true,
          "internalType": "address",
          "name": "member",
          "type": "address"
        },
        {
          "indexed": false,
          "internalType": "bytes32",
          "name": "oldRole",
          "type": "bytes32"
        },
        {
          "indexed": false,
          "internalType": "bytes32",
          "name": "newRole",
          "type": "bytes32"
        },
        {
          "indexed": false,
          "internalType": "address",
          "name": "changedBy",
          "type": "address"
        },
        {
          "indexed": false,
          "internalType": "uint256",
          "name": "timestamp",
          "type": "uint256"
        }
      ],
      "name": "RoleChanged",
      "type": "event"
    },
    {
      "anonymous": false,
      "inputs": [
        {
          "indexed": true,
          "internalType": "bytes32",
          "name": "role",
          "type": "bytes32"
        },
        {
          "indexed": true,
          "internalType": "address",
          "name": "account",
          "type": "address"
        },
        {
          "indexed": true,
          "internalType": "address",
          "name": "sender",
          "type": "address"
        }
      ],
      "name": "RoleGranted",
      "type": "event"
    },
    {
      "anonymous": false,
      "inputs": [
        {
          "indexed": true,
          "internalType": "bytes32",
          "name": "role",
          "type": "bytes32"
        },
        {
          "indexed": true,
          "internalType": "address",
          "name": "account",
          "type": "address"
        },
        {
          "indexed": true,
          "internalType": "address",
          "name": "sender",
          "type": "address"
        }
      ],
      "name": "RoleRevoked",
      "type": "event"
    },
    {
      "inputs": [],
      "name": "DEFAULT_ADMIN_ROLE",
      "outputs": [
        {
          "internalType": "bytes32",
          "name": "",
          "type": "bytes32"
        }
      ],
      "stateMutability": "view",
      "type": "function"
    },
    {
      "inputs": [],
      "name": "PROJECT_ADMIN",
      "outputs": [
        {
          "internalType": "bytes32",
          "name": "",
          "type": "bytes32"
        }
      ],
      "stateMutability": "view",
      "type": "function"
    },
    {
      "inputs": [],
      "name": "PROJECT_MEMBER",
      "outputs": [
        {
          "internalType": "bytes32",
          "name": "",
          "type": "bytes32"
        }
      ],
      "stateMutability": "view",
      "type": "function"
    },
    {
      "inputs": [],
      "name": "PROJECT_VERIFIER",
      "outputs": [
        {
          "internalType": "bytes32",
          "name": "",
          "type": "bytes32"
        }
      ],
      "stateMutability": "view",
      "type": "function"
    },
    {
      "inputs": [
        {
          "internalType": "bytes32",
          "name": "projectId",
          "type": "bytes32"
        },
        {
          "internalType": "address",
          "name": "member",
          "type": "address"
        },
        {
          "internalType": "bytes32",
          "name": "role",
          "type": "bytes32"
        }
      ],
      "name": "addMember",
      "outputs": [],
      "stateMutability": "nonpayable",
      "type": "function"
    },
    {
      "inputs": [
        {
          "internalType": "uint256",
          "name": "",
          "type": "uint256"
        }
      ],
      "name": "allProjects",
      "outputs": [
        {
          "internalType": "bytes32",
          "name": "",
          "type": "bytes32"
        }
      ],
      "stateMutability": "view",
      "type": "function"
    },
    {
      "inputs": [
        {
          "internalType": "bytes32",
          "name": "projectId",
          "type": "bytes32"
        },
        {
          "internalType": "address",
          "name": "member",
          "type": "address"
        },
        {
          "internalType": "bytes32",
          "name": "newRole",
          "type": "bytes32"
        }
      ],
      "name": "changeRole",
      "outputs": [],
      "stateMutability": "nonpayable",
      "type": "function"
    },
    {
      "inputs": [
        {
          "internalType": "bytes32",
          "name": "projectId",
          "type": "bytes32"
        },
        {
          "internalType": "string",
          "name": "name",
          "type": "string"
        },
        {
          "internalType": "string",
          "name": "description",
          "type": "string"
        }
      ],
      "name": "createProject",
      "outputs": [],
      "stateMutability": "nonpayable",
      "type": "function"
    },
    {
      "inputs": [
        {
          "internalType": "bytes32",
          "name": "projectId",
          "type": "bytes32"
        }
      ],
      "name": "getProject",
      "outputs": [
        {
          "components": [
            {
              "internalType": "bytes32",
              "name": "id",
              "type": "bytes32"
            },
            {
              "internalType": "string",
              "name": "name",
              "type": "string"
            },
            {
              "internalType": "string",
              "name": "description",
              "type": "string"
            },
            {
              "internalType": "address",
              "name": "creator",
              "type": "address"
            },
            {
              "internalType": "uint256",
              "name": "createdAt",
              "type": "uint256"
            },
            {
              "internalType": "bool",
              "name": "active",
              "type": "bool"
            },
            {
              "internalType": "uint256",
              "name": "memberCount",
              "type": "uint256"
            },
            {
              "internalType": "uint256",
              "name": "datasetCount",
              "type": "uint256"
            }
          ],
          "internalType": "struct DARAProjects.Project",
          "name": "",
          "type": "tuple"
        }
      ],
      "stateMutability": "view",
      "type": "function"
    },
    {
      "inputs": [
        {
          "internalType": "bytes32",
          "name": "projectId",
          "type": "bytes32"
        }
      ],
      "name": "getProjectMembers",
      "outputs": [
        {
          "internalType": "address[]",
          "name": "",
          "type": "address[]"
        }
      ],
      "stateMutability": "view",
      "type": "function"
    },
    {
      "inputs": [
        {
          "internalType": "uint256",
          "name": "offset",
          "type": "uint256"
        },
        {
          "internalType": "uint256",
          "name": "limit",
          "type": "uint256"
        }
      ],
      "name": "getProjects",
      "outputs": [
        {
          "components": [
            {
              "internalType": "bytes32",
              "name": "id",
              "type": "bytes32"
            },
            {
              "internalType": "string",
              "name": "name",
              "type": "string"
            },
            {
              "internalType": "string",
              "name": "description",
              "type": "string"
            },
            {
              "internalType": "address",
              "name": "creator",
              "type": "address"
            },
            {
              "internalType": "uint256",
              "name": "createdAt",
              "type": "uint256"
            },
            {
              "internalType": "bool",
              "name": "active",
              "type": "bool"
            },
            {
              "internalType": "uint256",
              "name": "memberCount",
              "type": "uint256"
            },
            {
              "internalType": "uint256",
              "name": "datasetCount",
              "type": "uint256"
            }
          ],
          "internalType": "struct DARAProjects.Project[]",
          "name": "result",
          "type": "tuple[]"
        }
      ],
      "stateMutability": "view",
      "type": "function"
    },
    {
      "inputs": [
        {
          "internalType": "bytes32",
          "name": "role",
          "type": "bytes32"
        }
      ],
      "name": "getRoleAdmin",
      "outputs": [
        {
          "internalType": "bytes32",
          "name": "",
          "type": "bytes32"
        }
      ],
      "stateMutability": "view",
      "type": "function"
    },
    {
      "inputs": [],
      "name": "getTotalProjects",
      "outputs": [
        {
          "internalType": "uint256",
          "name": "",
          "type": "uint256"
        }
      ],
      "stateMutability": "view",
      "type": "function"
    },
    {
      "inputs": [
        {
          "internalType": "address",
          "name": "user",
          "type": "address"
        }
      ],
      "name": "getUserProjects",
      "outputs": [
        {
          "internalType": "bytes32[]",
          "name": "",
          "type": "bytes32[]"
        }
      ],
      "stateMutability": "view",
      "type": "function"
    },
    {
      "inputs": [
        {
          "internalType": "bytes32",
          "name": "role",
          "type": "bytes32"
        },
        {
          "internalType": "address",
          "name": "account",
          "type": "address"
        }
      ],
      "name": "grantRole",
      "outputs": [],
      "stateMutability": "nonpayable",
      "type": "function"
    },
    {
      "inputs": [
        {
          "internalType": "bytes32",
          "name": "projectId",
          "type": "bytes32"
        },
        {
          "internalType": "address",
          "name": "user",
          "type": "address"
        },
        {
          "internalType": "bytes32",
          "name": "role",
          "type": "bytes32"
        }
      ],
      "name": "hasRole",
      "outputs": [
        {
          "internalType": "bool",
          "name": "",
          "type": "bool"
        }
      ],
      "stateMutability": "view",
      "type": "function"
    },
    {
      "inputs": [
        {
          "internalType": "bytes32",
          "name": "role",
          "type": "bytes32"
        },
        {
          "internalType": "address",
          "name": "account",
          "type": "address"
        }
      ],
      "name": "hasRole",
      "outputs": [
        {
          "internalType": "bool",
          "name": "",
          "type": "bool"
        }
      ],
      "stateMutability": "view",
      "type": "function"
    },
    {
      "inputs": [
        {
          "internalType": "bytes32",
          "name": "projectId",
          "type": "bytes32"
        }
      ],
      "name": "incrementDatasetCount",
      "outputs": [],
      "stateMutability": "nonpayable",
      "type": "function"
    },
    {
      "inputs": [
        {
          "internalType": "bytes32",
          "name": "projectId",
          "type": "bytes32"
        },
        {
          "internalType": "address",
          "name": "user",
          "type": "address"
        }
      ],
      "name": "isMember",
      "outputs": [
        {
          "internalType": "bool",
          "name": "",
          "type": "bool"
        }
      ],
      "stateMutability": "view",
      "type": "function"
    },
    {
      "inputs": [
        {
          "internalType": "bytes32",
          "name": "",
          "type": "bytes32"
        },
        {
          "internalType": "uint256",
          "name": "",
          "type": "uint256"
        }
      ],
      "name": "projectMemberList",
      "outputs": [
        {
          "internalType": "address",
          "name": "",
          "type": "address"
        }
      ],
      "stateMutability": "view",
      "type": "function"
    },
    {
      "inputs": [
        {
          "internalType": "bytes32",
          "name": "",
          "type": "bytes32"
        },
        {
          "internalType": "address",
          "name": "",
          "type": "address"
        }
      ],
      "name": "projectMembers",
      "outputs": [
        {
          "internalType": "address",
          "name": "member",
          "type": "address"
        },
        {
          "internalType": "bytes32",
          "name": "role",
          "type": "bytes32"
        },
        {
          "internalType": "uint256",
          "name": "joinedAt",
          "type": "uint256"
        },
        {
          "internalType": "bool",
          "name": "active",
          "type": "bool"
        }
      ],
      "stateMutability": "view",
      "type": "function"
    },
    {
      "inputs": [
        {
          "internalType": "bytes32",
          "name": "",
          "type": "bytes32"
        }
      ],
      "name": "projects",
      "outputs": [
        {
          "internalType": "bytes32",
          "name": "id",
          "type": "bytes32"
        },
        {
          "internalType": "string",
          "name": "name",
          "type": "string"
        },
        {
          "internalType": "string",
          "name": "description",
          "type": "string"
        },
        {
          "internalType": "address",
          "name": "creator",
          "type": "address"
        },
        {
          "internalType": "uint256",
          "name": "createdAt",
          "type": "uint256"
        },
        {
          "internalType": "bool",
          "name": "active",
          "type": "bool"
        },
        {
          "internalType": "uint256",
          "name": "memberCount",
          "type": "uint256"
        },
        {
          "internalType": "uint256",
          "name": "datasetCount",
          "type": "uint256"
        }
      ],
      "stateMutability": "view",
      "type": "function"
    },
    {
      "inputs": [
        {
          "internalType": "bytes32",
          "name": "projectId",
          "type": "bytes32"
        },
        {
          "internalType": "address",
          "name": "member",
          "type": "address"
        }
      ],
      "name": "removeMember",
      "outputs": [],
      "stateMutability": "nonpayable",
      "type": "function"
    },
    {
      "inputs": [
        {
          "internalType": "bytes32",
          "name": "role",
          "type": "bytes32"
        },
        {
          "internalType": "address",
          "name": "callerConfirmation",
          "type": "address"
        }
      ],
      "name": "renounceRole",
      "outputs": [],
      "stateMutability": "nonpayable",
      "type": "function"
    },
    {
      "inputs": [
        {
          "internalType": "bytes32",
          "name": "role",
          "type": "bytes32"
        },
        {
          "internalType": "address",
          "name": "account",
          "type": "address"
        }
      ],
      "name": "revokeRole",
      "outputs": [],
      "stateMutability": "nonpayable",
      "type": "function"
    },
    {
      "inputs": [
        {
          "internalType": "bytes4",
          "name": "interfaceId",
          "type": "bytes4"
        }
      ],
      "name": "supportsInterface",
      "outputs": [
        {
          "internalType": "bool",
          "name": "",
          "type": "bool"
        }
      ],
      "stateMutability": "view",
      "type": "function"
    },
    {
      "inputs": [
        {
          "internalType": "bytes32",
          "name": "projectId",
          "type": "bytes32"
        },
        {
          "internalType": "string",
          "name": "name",
          "type": "string"
        },
        {
          "internalType": "string",
          "name": "description",
          "type": "string"
        }
      ],
      "name": "updateProject",
      "outputs": [],
      "stateMutability": "nonpayable",
      "type": "function"
    },
    {
      "inputs": [
        {
          "internalType": "address",
          "name": "",
          "type": "address"
        },
        {
          "internalType": "uint256",
          "name": "",
          "type": "uint256"
        }
      ],
      "name": "userProjects",
      "outputs": [
        {
          "internalType": "bytes32",
          "name": "",
          "type": "bytes32"
        }
      ],
      "stateMutability": "view",
      "type": "function"
    }
  ],
  "bytecode": "0x608060405234801562000010575f80fd5b5060018055620000215f3362000028565b50620000d4565b5f828152602081815260408083206001600160a01b038516845290915281205460ff16620000cb575f838152602081815260408083206001600160a01b03861684529091529020805460ff19166001179055620000823390565b6001600160a01b0316826001600160a01b0316847f2f8788117e7eff1d82e926ec794901d17c78024a50270940304540a733656f0d60405160405180910390a4506001620000ce565b505f5b92915050565b6121f180620000e25f395ff3fe608060405234801561000f575f80fd5b50600436106101bb575f3560e01c806353b3194c116100f3578063a84ce2b511610093578063d547741f1161006e578063d547741f14610495578063e32e723c146104a8578063eeb4b337146104c8578063f28a80b6146104ef575f80fd5b8063a84ce2b51461043b578063b96ea12d1461045b578063c98addcd14610482575f80fd5b8063984ead10116100ce578063984ead10146103fb5780639a7374861461040e5780639ce6ddd914610421578063a217fddf14610434575f80fd5b806353b3194c146103cd578063812739a2146103e057806391d14854146103e8575f80fd5b8063248a9ca31161015e57806331edb9531161013957806331edb9531461031057806336568abe146103235780634aa53f62146103365780634b5f748a146103ad575f80fd5b8063248a9ca3146102c85780632f2ff15d146102ea5780632fa9c007146102fd575f80fd5b806311d6b92e1161019957806311d6b92e14610233578063137a26a11461025e5780631b2873811461029357806320b8c3f6146102b3575f80fd5b806301ffc9a7146101bf578063089d0b0c146101e757806310ad56b3146101fa575b5f80fd5b6101d26101cd366004611aeb565b610503565b60405190151581526020015b60405180910390f35b6101d26101f5366004611b34565b610539565b6101d2610208366004611b66565b5f9182526003602081815260408085206001600160a01b039490941685529290529120015460ff1690565b610246610241366004611b90565b6105aa565b6040516001600160a01b0390911681526020016101de565b6102857fdaa0e89ce61e1b2454cd521b1cd6be9d1f5b31a33b30beaee6d90503cb91e8d681565b6040519081526020016101de565b6102a66102a1366004611bb0565b6105de565b6040516101de9190611bc7565b6102c66102c1366004611bb0565b610647565b005b6102856102d6366004611bb0565b5f9081526020819052604090206001015490565b6102c66102f8366004611b66565b6106a4565b61028561030b366004611c13565b6106ce565b6102c661031e366004611b34565b6106f9565b6102c6610331366004611b66565b6108d8565b610381610344366004611b66565b600360208181525f9384526040808520909152918352912080546001820154600283015492909301546001600160a01b0390911692919060ff1684565b604080516001600160a01b039095168552602085019390935291830152151560608201526080016101de565b6103c06103bb366004611bb0565b610910565b6040516101de9190611d00565b6102856103db366004611bb0565b610aff565b600654610285565b6101d26103f6366004611b66565b610b1e565b6102c6610409366004611daf565b610b46565b6102c661041c366004611b66565b610c64565b6102c661042f366004611b34565b610e20565b6102855f81565b61044e610449366004611b90565b6110b3565b6040516101de9190611e17565b61046e610469366004611bb0565b61135d565b6040516101de989796959493929190611e77565b6102c6610490366004611daf565b6114b7565b6102c66104a3366004611b66565b6118a6565b6104bb6104b6366004611ed9565b6118ca565b6040516101de9190611ef2565b6102857f9a7bef827f1080625b562d4b653de0f8259de9d1e42c1d279c5697894f934ded81565b6102855f8051602061219c83398151915281565b5f6001600160e01b03198216637965db0b60e01b148061053357506301ffc9a760e01b6001600160e01b03198316145b92915050565b5f8381526003602081815260408084206001600160a01b03808816865290835281852082516080810184528154909216825260018101549382019390935260028301549181019190915291015460ff1615801560608301819052906105a15750828160200151145b95945050505050565b6004602052815f5260405f2081815481106105c3575f80fd5b5f918252602090912001546001600160a01b03169150829050565b5f8181526004602090815260409182902080548351818402810184019094528084526060939283018282801561063b57602002820191905f5260205f20905b81546001600160a01b0316815260019091019060200180831161061d575b50505050509050919050565b5f8181526002602052604090206005015460ff166106805760405162461bcd60e51b815260040161067790611f29565b60405180910390fd5b5f81815260026020526040812060070180549161069c83611f69565b919050555050565b5f828152602081905260409020600101546106be81611932565b6106c8838361193f565b50505050565b6005602052815f5260405f2081815481106106e7575f80fd5b905f5260205f20015f91509150505481565b5f8381526002602052604090206005015460ff166107295760405162461bcd60e51b815260040161067790611f29565b61074183335f8051602061219c833981519152610539565b61075d5760405162461bcd60e51b815260040161067790611f81565b5f8381526003602081815260408084206001600160a01b0387168552909152909120015460ff166107bf5760405162461bcd60e51b815260206004820152600c60248201526b2737ba10309036b2b6b132b960a11b6044820152606401610677565b5f8051602061219c8339815191528114806107f957507fdaa0e89ce61e1b2454cd521b1cd6be9d1f5b31a33b30beaee6d90503cb91e8d681145b8061082357507f9a7bef827f1080625b562d4b653de0f8259de9d1e42c1d279c5697894f934ded81145b61085e5760405162461bcd60e51b815260206004820152600c60248201526b496e76616c696420726f6c6560a01b6044820152606401610677565b5f8381526003602090815260408083206001600160a01b0386168085529083529281902060010180549085905581518181529283018590523383830152426060840152905190929186917f242637c3f4bc9b3f88bdf9e9a1fc881a388255a4b7cc3d11065ddb5f6baac2f89181900360800190a350505050565b6001600160a01b03811633146109015760405163334bd91960e11b815260040160405180910390fd5b61090b82826119ce565b505050565b610918611a9e565b5f828152600260205260409020600301546001600160a01b03166109725760405162461bcd60e51b8152602060048201526011602482015270141c9bda9958dd081b9bdd08199bdd5b99607a1b6044820152606401610677565b60025f8381526020019081526020015f20604051806101000160405290815f82015481526020016001820180546109a890611fa9565b80601f01602080910402602001604051908101604052809291908181526020018280546109d490611fa9565b8015610a1f5780601f106109f657610100808354040283529160200191610a1f565b820191905f5260205f20905b815481529060010190602001808311610a0257829003601f168201915b50505050508152602001600282018054610a3890611fa9565b80601f0160208091040260200160405190810160405280929190818152602001828054610a6490611fa9565b8015610aaf5780601f10610a8657610100808354040283529160200191610aaf565b820191905f5260205f20905b815481529060010190602001808311610a9257829003601f168201915b505050918352505060038201546001600160a01b0316602082015260048201546040820152600582015460ff16151560608201526006820154608082015260079091015460a09091015292915050565b60068181548110610b0e575f80fd5b5f91825260209091200154905081565b5f918252602082815260408084206001600160a01b0393909316845291905290205460ff1690565b5f8381526002602052604090206005015460ff16610b765760405162461bcd60e51b815260040161067790611f29565b610b8e83335f8051602061219c833981519152610539565b610baa5760405162461bcd60e51b815260040161067790611f81565b5f825111610bea5760405162461bcd60e51b815260206004820152600d60248201526c13985b59481c995c5d5a5c9959609a1b6044820152606401610677565b5f838152600260205260409020600101610c04838261202e565b505f83815260026020819052604090912001610c20828261202e565b50827f25d3a83ffce6b7d12f48db12636182eeb08ef8854adc34e662d65013ecdb4a7583833342604051610c5794939291906120ea565b60405180910390a2505050565b5f8281526002602052604090206005015460ff16610c945760405162461bcd60e51b815260040161067790611f29565b610cac82335f8051602061219c833981519152610539565b610cc85760405162461bcd60e51b815260040161067790611f81565b5f8281526003602081815260408084206001600160a01b0386168552909152909120015460ff16610d2a5760405162461bcd60e51b815260206004820152600c60248201526b2737ba10309036b2b6b132b960a11b6044820152606401610677565b5f828152600260205260409020600301546001600160a01b0390811690821603610d8e5760405162461bcd60e51b815260206004820152601560248201527421b0b73737ba103932b6b7bb329031b932b0ba37b960591b6044820152606401610677565b5f8281526003602081815260408084206001600160a01b03861685528252808420909201805460ff19169055848352600290528120600601805491610dd28361212b565b9091555050604080513381524260208201526001600160a01b0383169184917f5d217284307a9a468a1cdef1dd9d2ee1a286c7d0c998e65d4afcdb249cf9524d910160405180910390a35050565b5f8381526002602052604090206005015460ff16610e505760405162461bcd60e51b815260040161067790611f29565b610e6883335f8051602061219c833981519152610539565b610e845760405162461bcd60e51b815260040161067790611f81565b5f8381526003602081815260408084206001600160a01b0387168552909152909120015460ff1615610eeb5760405162461bcd60e51b815260206004820152601060248201526f20b63932b0b23c90309036b2b6b132b960811b6044820152606401610677565b5f8051602061219c833981519152811480610f2557507fdaa0e89ce61e1b2454cd521b1cd6be9d1f5b31a33b30beaee6d90503cb91e8d681145b80610f4f57507f9a7bef827f1080625b562d4b653de0f8259de9d1e42c1d279c5697894f934ded81145b610f8a5760405162461bcd60e51b815260206004820152600c60248201526b496e76616c696420726f6c6560a01b6044820152606401610677565b604080516080810182526001600160a01b038085168083526020808401868152428587019081526001606087018181525f8c815260038087528a822088835287528a822099518a5499166001600160a01b0319998a16178a5594518984015592516002808a0191909155905197909301805497151560ff1990981697909717909655898152600483528681208054808801825590825283822001805490951684179094559183526005815284832080549485018155835280832090930187905586825290915290812060060180549161106283611f69565b90915550506040805133815242602082015282916001600160a01b0385169186917f24ac5c94d8932f3d58a883ecbf2c31adeeef65a720f1ad59a853ad17f341db62910160405180910390a4505050565b6006546060908084106110f957604080515f80825260208201909252906110f0565b6110dd611a9e565b8152602001906001900390816110d55790505b50915050610533565b5f6111048486612140565b9050818111156111115750805b61111b8582612153565b67ffffffffffffffff81111561113357611133611d12565b60405190808252806020026020018201604052801561116c57816020015b611159611a9e565b8152602001906001900390816111515790505b509250845b818110156113545760025f6006838154811061118f5761118f612166565b905f5260205f20015481526020019081526020015f20604051806101000160405290815f82015481526020016001820180546111ca90611fa9565b80601f01602080910402602001604051908101604052809291908181526020018280546111f690611fa9565b80156112415780601f1061121857610100808354040283529160200191611241565b820191905f5260205f20905b81548152906001019060200180831161122457829003601f168201915b5050505050815260200160028201805461125a90611fa9565b80601f016020809104026020016040519081016040528092919081815260200182805461128690611fa9565b80156112d15780601f106112a8576101008083540402835291602001916112d1565b820191905f5260205f20905b8154815290600101906020018083116112b457829003601f168201915b505050918352505060038201546001600160a01b0316602082015260048201546040820152600582015460ff16151560608201526006820154608082015260079091015460a090910152846113268884612153565b8151811061133657611336612166565b6020026020010181905250808061134c90611f69565b915050611171565b50505092915050565b60026020525f90815260409020805460018201805491929161137e90611fa9565b80601f01602080910402602001604051908101604052809291908181526020018280546113aa90611fa9565b80156113f55780601f106113cc576101008083540402835291602001916113f5565b820191905f5260205f20905b8154815290600101906020018083116113d857829003601f168201915b50505050509080600201805461140a90611fa9565b80601f016020809104026020016040519081016040528092919081815260200182805461143690611fa9565b80156114815780601f1061145857610100808354040283529160200191611481565b820191905f5260205f20905b81548152906001019060200180831161146457829003601f168201915b505050600384015460048501546005860154600687015460079097015495966001600160a01b039093169591945060ff16925088565b6114bf611a37565b826115015760405162461bcd60e51b8152602060048201526012602482015271125b9d985b1a59081c1c9bda9958dd08125160721b6044820152606401610677565b5f8251116115415760405162461bcd60e51b815260206004820152600d60248201526c13985b59481c995c5d5a5c9959609a1b6044820152606401610677565b5f838152600260205260409020600301546001600160a01b0316156115995760405162461bcd60e51b815260206004820152600e60248201526d50726f6a6563742065786973747360901b6044820152606401610677565b60408051610100810182528481526020808201858152828401859052336060840152426080840152600160a0840181905260c084018190525f60e0850181905288815260029093529390912082518155905191929091908201906115fd908261202e565b5060408201516002820190611612908261202e565b506060820151816003015f6101000a8154816001600160a01b0302191690836001600160a01b031602179055506080820151816004015560a0820151816005015f6101000a81548160ff02191690831515021790555060c0820151816006015560e082015181600701559050506040518060800160405280336001600160a01b031681526020015f8051602061219c83398151915281526020014281526020016001151581525060035f8581526020019081526020015f205f336001600160a01b03166001600160a01b031681526020019081526020015f205f820151815f015f6101000a8154816001600160a01b0302191690836001600160a01b0316021790555060208201518160010155604082015181600201556060820151816003015f6101000a81548160ff02191690831515021790555090505060045f8481526020019081526020015f2033908060018154018082558091505060019003905f5260205f20015f9091909190916101000a8154816001600160a01b0302191690836001600160a01b0316021790555060055f336001600160a01b03166001600160a01b031681526020019081526020015f2083908060018154018082558091505060019003905f5260205f20015f9091909190915055600683908060018154018082558091505060019003905f5260205f20015f9091909190915055336001600160a01b0316837f27ba3760c2e7c1c8d02fc5b0d15600429ecee6725ce5df52fc742b55ed16bfd6844260405161184992919061217a565b60405180910390a360408051338082524260208301525f8051602061219c83398151915292909186917f24ac5c94d8932f3d58a883ecbf2c31adeeef65a720f1ad59a853ad17f341db62910160405180910390a461090b60018055565b5f828152602081905260409020600101546118c081611932565b6106c883836119ce565b6001600160a01b0381165f9081526005602090815260409182902080548351818402810184019094528084526060939283018282801561063b57602002820191905f5260205f20905b8154815260200190600101908083116119135750505050509050919050565b61193c8133611a61565b50565b5f61194a8383610b1e565b6119c7575f838152602081815260408083206001600160a01b03861684529091529020805460ff1916600117905561197f3390565b6001600160a01b0316826001600160a01b0316847f2f8788117e7eff1d82e926ec794901d17c78024a50270940304540a733656f0d60405160405180910390a4506001610533565b505f610533565b5f6119d98383610b1e565b156119c7575f838152602081815260408083206001600160a01b0386168085529252808320805460ff1916905551339286917ff6391f5c32d9c69d2a47ea670b442974b53935d1edc7fd64eb21e047a839171b9190a4506001610533565b600260015403611a5a57604051633ee5aeb560e01b815260040160405180910390fd5b6002600155565b611a6b8282610b1e565b611a9a5760405163e2517d3f60e01b81526001600160a01b038216600482015260248101839052604401610677565b5050565b6040518061010001604052805f801916815260200160608152602001606081526020015f6001600160a01b031681526020015f81526020015f151581526020015f81526020015f81525090565b5f60208284031215611afb575f80fd5b81356001600160e01b031981168114611b12575f80fd5b9392505050565b80356001600160a01b0381168114611b2f575f80fd5b919050565b5f805f60608486031215611b46575f80fd5b83359250611b5660208501611b19565b9150604084013590509250925092565b5f8060408385031215611b77575f80fd5b82359150611b8760208401611b19565b90509250929050565b5f8060408385031215611ba1575f80fd5b50508035926020909101359150565b5f60208284031215611bc0575f80fd5b5035919050565b602080825282518282018190525f9190848201906040850190845b81811015611c075783516001600160a01b031683529284019291840191600101611be2565b50909695505050505050565b5f8060408385031215611c24575f80fd5b611c2d83611b19565b946020939093013593505050565b5f81518084525f5b81811015611c5f57602081850181015186830182015201611c43565b505f602082860101526020601f19601f83011685010191505092915050565b5f610100825184526020830151816020860152611c9d82860182611c3b565b91505060408301518482036040860152611cb78282611c3b565b91505060018060a01b0360608401511660608501526080830151608085015260a0830151151560a085015260c083015160c085015260e083015160e08501528091505092915050565b602081525f611b126020830184611c7e565b634e487b7160e01b5f52604160045260245ffd5b5f82601f830112611d35575f80fd5b813567ffffffffffffffff80821115611d5057611d50611d12565b604051601f8301601f19908116603f01168101908282118183101715611d7857611d78611d12565b81604052838152866020858801011115611d90575f80fd5b836020870160208301375f602085830101528094505050505092915050565b5f805f60608486031215611dc1575f80fd5b83359250602084013567ffffffffffffffff80821115611ddf575f80fd5b611deb87838801611d26565b93506040860135915080821115611e00575f80fd5b50611e0d86828701611d26565b9150509250925092565b5f602080830181845280855180835260408601915060408160051b87010192508387015f5b82811015611e6a57603f19888603018452611e58858351611c7e565b94509285019290850190600101611e3c565b5092979650505050505050565b5f6101008a8352806020840152611e908184018b611c3b565b90508281036040840152611ea4818a611c3b565b6001600160a01b039890981660608401525050608081019490945291151560a084015260c083015260e0909101529392505050565b5f60208284031215611ee9575f80fd5b611b1282611b19565b602080825282518282018190525f9190848201906040850190845b81811015611c0757835183529284019291840191600101611f0d565b60208082526012908201527150726f6a656374206e6f742061637469766560701b604082015260600190565b634e487b7160e01b5f52601160045260245ffd5b5f60018201611f7a57611f7a611f55565b5060010190565b6020808252600e908201526d139bdd08185d5d1a1bdc9a5e995960921b604082015260600190565b600181811c90821680611fbd57607f821691505b602082108103611fdb57634e487b7160e01b5f52602260045260245ffd5b50919050565b601f82111561090b575f81815260208120601f850160051c810160208610156120075750805b601f850160051c820191505b8181101561202657828155600101612013565b505050505050565b815167ffffffffffffffff81111561204857612048611d12565b61205c816120568454611fa9565b84611fe1565b602080601f83116001811461208f575f84156120785750858301515b5f19600386901b1c1916600185901b178555612026565b5f85815260208120601f198616915b828110156120bd5788860151825594840194600190910190840161209e565b50858210156120da57878501515f19600388901b60f8161c191681555b5050505050600190811b01905550565b608081525f6120fc6080830187611c3b565b828103602084015261210e8187611c3b565b6001600160a01b0395909516604084015250506060015292915050565b5f8161213957612139611f55565b505f190190565b8082018082111561053357610533611f55565b8181038181111561053357610533611f55565b634e487b7160e01b5f52603260045260245ffd5b604081525f61218c6040830185611c3b565b9050826020830152939250505056fe43d5f2668bd1c7628e58e967bbd8b63f1feac3fe0c46b06ccf42fdd0dc6cc150a264697066735822122002ca5dde2665123b85642fb659f8816ee0db55f1598d6eb7ec4b45c5bbf5c3ec64736f6c63430008140033",
  "linkReferences": {},
  "deployedLinkReferences": {},
  "immutableReferences": {},
  "inputSourceName": "project/contracts/DARAProjects.sol",
  "buildInfoId": "solc-0_8_20-60aa20fccfedd320b0822fa3fac9e56bea75914d"
}