{
  "_format": "hh-sol-artifact-1",
  "contractName": "DARARegistry",
  "sourceName": "contracts/DARARegistry.sol",
  "abi": [
    {
      "inputs": [],
      "stateMutability": "nonpayable",
      "type": "constructor"
    },
    {
      "inputs": [],
      "name": "AccessControlBadConfirmation",
      "type": "error"
    },
    {
      "inputs": [
        {
          "internalType": "address",
          "name": "account",
          "type": "address"
        },
        {
          "internalType": "bytes32",
          "name": "neededRole",
          "type": "bytes32"
        }
      ],
      "name": "AccessControlUnauthorizedAccount",
      "type": "error"
    },
    {
      "inputs": [],
      "name": "ReentrancyGuardReentrantCall",
      "type": "error"
    },
    {
      "anonymous": false,
      "inputs": [
        {
          "indexed": true,
          "internalType": "uint256",
          "name": "fromId",
          "type": "uint256"
        },
        {
          "indexed": true,
          "internalType": "bytes32",
          "name": "citedRoot",
          "type": "bytes32"
        },
        {
          "indexed": false,
          "internalType": "uint8",
          "name": "weight",
          "type": "uint8"
        },
        {
          "indexed": true,
          "internalType": "address",
          "name": "citer",
          "type": "address"
        },
        {
          "indexed": false,
          "internalType": "uint256",
          "name": "timestamp",
          "type": "uint256"
        }
      ],
      "name": "CitationAdded",
      "type": "event"
    },
    {
      "anonymous": false,
      "inputs": [
        {
          "indexed": true,
          "internalType": "uint256",
          "name": "id",
          "type": "uint256"
        },
        {
          "indexed": true,
          "internalType": "bytes32",
          "name": "root",
          "type": "bytes32"
        },
        {
          "indexed": true,
          "internalType": "bytes32",
          "name": "manifestHash",
          "type": "bytes32"
        },
        {
          "indexed": false,
          "internalType": "bytes32",
          "name": "projectId",
          "type": "bytes32"
        },
        {
          "indexed": false,
          "internalType": "address",
          "name": "uploader",
          "type": "address"
        },
        {
          "indexed": false,
          "internalType": "uint256",
          "name": "timestamp",
          "type": "uint256"
        }
      ],
      "name": "DatasetAnchored",
      "type": "event"
    },
    {
      "anonymous": false,
      "inputs": [
        {
          "indexed": true,
          "internalType": "uint256",
          "name": "id",
          "type": "uint256"
        },
        {
          "indexed": true,
          "internalType": "address",
          "name": "verifier",
          "type": "address"
        },
        {
          "indexed": false,
          "internalType": "uint256",
          "name": "timestamp",
          "type": "uint256"
        }
      ],
      "name": "DatasetVerified",
      "type": "event"
    },
    {
      "anonymous": false,
      "inputs": [
        {
          "indexed": true,
          "internalType": "bytes32",
          "name": "role",
          "type": "bytes32"
        },
        {
          "indexed": true,
          "internalType": "bytes32",
          "name": "previousAdminRole",
          "type": "bytes32"
        },
        {
          "indexed": true,
          "internalType": "bytes32",
          "name": "newAdminRole",
          "type": "bytes32"
        }
      ],
      "name": "RoleAdminChanged",
      "type": "event"
    },
    {
      "anonymous": false,
      "inputs": [
        {
          "indexed": true,
          "internalType": "bytes32",
          "name": "role",
          "type": "bytes32"
        },
        {
          "indexed": true,
          "internalType": "address",
          "name": "account",
          "type": "address"
        },
        {
          "indexed": true,
          "internalType": "address",
          "name": "sender",
          "type": "address"
        }
      ],
      "name": "RoleGranted",
      "type": "event"
    },
    {
      "anonymous": false,
      "inputs": [
        {
          "indexed": true,
          "internalType": "bytes32",
          "name": "role",
          "type": "bytes32"
        },
        {
          "indexed": true,
          "internalType": "address",
          "name": "account",
          "type": "address"
        },
        {
          "indexed": true,
          "internalType": "address",
          "name": "sender",
          "type": "address"
        }
      ],
      "name": "RoleRevoked",
      "type": "event"
    },
    {
      "inputs": [],
      "name": "DEFAULT_ADMIN_ROLE",
      "outputs": [
        {
          "internalType": "bytes32",
          "name": "",
          "type": "bytes32"
        }
      ],
      "stateMutability": "view",
      "type": "function"
    },
    {
      "inputs": [],
      "name": "VERIFIER_ROLE",
      "outputs": [
        {
          "internalType": "bytes32",
          "name": "",
          "type": "bytes32"
        }
      ],
      "stateMutability": "view",
      "type": "function"
    },
    {
      "inputs": [
        {
          "internalType": "bytes32",
          "name": "root",
          "type": "bytes32"
        },
        {
          "internalType": "bytes32",
          "name": "manifestHash",
          "type": "bytes32"
        },
        {
          "internalType": "bytes32",
          "name": "projectId",
          "type": "bytes32"
        }
      ],
      "name": "anchor",
      "outputs": [
        {
          "internalType": "uint256",
          "name": "id",
          "type": "uint256"
        }
      ],
      "stateMutability": "nonpayable",
      "type": "function"
    },
    {
      "inputs": [
        {
          "internalType": "uint256",
          "name": "",
          "type": "uint256"
        },
        {
          "internalType": "uint256",
          "name": "",
          "type": "uint256"
        }
      ],
      "name": "citations",
      "outputs": [
        {
          "internalType": "uint256",
          "name": "fromId",
          "type": "uint256"
        },
        {
          "internalType": "bytes32",
          "name": "citedRoot",
          "type": "bytes32"
        },
        {
          "internalType": "uint8",
          "name": "weight",
          "type": "uint8"
        },
        {
          "internalType": "address",
          "name": "citer",
          "type": "address"
        },
        {
          "internalType": "uint256",
          "name": "timestamp",
          "type": "uint256"
        }
      ],
      "stateMutability": "view",
      "type": "function"
    },
    {
      "inputs": [
        {
          "internalType": "uint256",
          "name": "fromId",
          "type": "uint256"
        },
        {
          "internalType": "bytes32",
          "name": "citedRoot",
          "type": "bytes32"
        },
        {
          "internalType": "uint8",
          "name": "weight",
          "type": "uint8"
        }
      ],
      "name": "cite",
      "outputs": [],
      "stateMutability": "nonpayable",
      "type": "function"
    },
    {
      "inputs": [
        {
          "internalType": "uint256",
          "name": "",
          "type": "uint256"
        }
      ],
      "name": "datasets",
      "outputs": [
        {
          "internalType": "uint256",
          "name": "id",
          "type": "uint256"
        },
        {
          "internalType": "bytes32",
          "name": "root",
          "type": "bytes32"
        },
        {
          "internalType": "bytes32",
          "name": "manifestHash",
          "type": "bytes32"
        },
        {
          "internalType": "bytes32",
          "name": "projectId",
          "type": "bytes32"
        },
        {
          "internalType": "address",
          "name": "uploader",
          "type": "address"
        },
        {
          "internalType": "uint256",
          "name": "timestamp",
          "type": "uint256"
        },
        {
          "internalType": "bool",
          "name": "verified",
          "type": "bool"
        },
        {
          "internalType": "uint256",
          "name": "citationCount",
          "type": "uint256"
        }
      ],
      "stateMutability": "view",
      "type": "function"
    },
    {
      "inputs": [
        {
          "internalType": "uint256",
          "name": "id",
          "type": "uint256"
        }
      ],
      "name": "getCitations",
      "outputs": [
        {
          "components": [
            {
              "internalType": "uint256",
              "name": "fromId",
              "type": "uint256"
            },
            {
              "internalType": "bytes32",
              "name": "citedRoot",
              "type": "bytes32"
            },
            {
              "internalType": "uint8",
              "name": "weight",
              "type": "uint8"
            },
            {
              "internalType": "address",
              "name": "citer",
              "type": "address"
            },
            {
              "internalType": "uint256",
              "name": "timestamp",
              "type": "uint256"
            }
          ],
          "internalType": "struct DARARegistry.Citation[]",
          "name": "",
          "type": "tuple[]"
        }
      ],
      "stateMutability": "view",
      "type": "function"
    },
    {
      "inputs": [
        {
          "internalType": "uint256",
          "name": "id",
          "type": "uint256"
        }
      ],
      "name": "getDataset",
      "outputs": [
        {
          "components": [
            {
              "internalType": "uint256",
              "name": "id",
              "type": "uint256"
            },
            {
              "internalType": "bytes32",
              "name": "root",
              "type": "bytes32"
            },
            {
              "internalType": "bytes32",
              "name": "manifestHash",
              "type": "bytes32"
            },
            {
              "internalType": "bytes32",
              "name": "projectId",
              "type": "bytes32"
            },
            {
              "internalType": "address",
              "name": "uploader",
              "type": "address"
            },
            {
              "internalType": "uint256",
              "name": "timestamp",
              "type": "uint256"
            },
            {
              "internalType": "bool",
              "name": "verified",
              "type": "bool"
            },
            {
              "internalType": "uint256",
              "name": "citationCount",
              "type": "uint256"
            }
          ],
          "internalType": "struct DARARegistry.Dataset",
          "name": "",
          "type": "tuple"
        }
      ],
      "stateMutability": "view",
      "type": "function"
    },
    {
      "inputs": [
        {
          "internalType": "bytes32",
          "name": "root",
          "type": "bytes32"
        }
      ],
      "name": "getDatasetByRoot",
      "outputs": [
        {
          "components": [
            {
              "internalType": "uint256",
              "name": "id",
              "type": "uint256"
            },
            {
              "internalType": "bytes32",
              "name": "root",
              "type": "bytes32"
            },
            {
              "internalType": "bytes32",
              "name": "manifestHash",
              "type": "bytes32"
            },
            {
              "internalType": "bytes32",
              "name": "projectId",
              "type": "bytes32"
            },
            {
              "internalType": "address",
              "name": "uploader",
              "type": "address"
            },
            {
              "internalType": "uint256",
              "name": "timestamp",
              "type": "uint256"
            },
            {
              "internalType": "bool",
              "name": "verified",
              "type": "bool"
            },
            {
              "internalType": "uint256",
              "name": "citationCount",
              "type": "uint256"
            }
          ],
          "internalType": "struct DARARegistry.Dataset",
          "name": "",
          "type": "tuple"
        }
      ],
      "stateMutability": "view",
      "type": "function"
    },
    {
      "inputs": [
        {
          "internalType": "uint256",
          "name": "offset",
          "type": "uint256"
        },
        {
          "internalType": "uint256",
          "name": "limit",
          "type": "uint256"
        }
      ],
      "name": "getDatasets",
      "outputs": [
        {
          "components": [
            {
              "internalType": "uint256",
              "name": "id",
              "type": "uint256"
            },
            {
              "internalType": "bytes32",
              "name": "root",
              "type": "bytes32"
            },
            {
              "internalType": "bytes32",
              "name": "manifestHash",
              "type": "bytes32"
            },
            {
              "internalType": "bytes32",
              "name": "projectId",
              "type": "bytes32"
            },
            {
              "internalType": "address",
              "name": "uploader",
              "type": "address"
            },
            {
              "internalType": "uint256",
              "name": "timestamp",
              "type": "uint256"
            },
            {
              "internalType": "bool",
              "name": "verified",
              "type": "bool"
            },
            {
              "internalType": "uint256",
              "name": "citationCount",
              "type": "uint256"
            }
          ],
          "internalType": "struct DARARegistry.Dataset[]",
          "name": "result",
          "type": "tuple[]"
        }
      ],
      "stateMutability": "view",
      "type": "function"
    },
    {
      "inputs": [
        {
          "internalType": "bytes32",
          "name": "projectId",
          "type": "bytes32"
        }
      ],
      "name": "getProjectDatasets",
      "outputs": [
        {
          "internalType": "uint256[]",
          "name": "",
          "type": "uint256[]"
        }
      ],
      "stateMutability": "view",
      "type": "function"
    },
    {
      "inputs": [
        {
          "internalType": "bytes32",
          "name": "role",
          "type": "bytes32"
        }
      ],
      "name": "getRoleAdmin",
      "outputs": [
        {
          "internalType": "bytes32",
          "name": "",
          "type": "bytes32"
        }
      ],
      "stateMutability": "view",
      "type": "function"
    },
    {
      "inputs": [],
      "name": "getTotalDatasets",
      "outputs": [
        {
          "internalType": "uint256",
          "name": "",
          "type": "uint256"
        }
      ],
      "stateMutability": "view",
      "type": "function"
    },
    {
      "inputs": [
        {
          "internalType": "bytes32",
          "name": "role",
          "type": "bytes32"
        },
        {
          "internalType": "address",
          "name": "account",
          "type": "address"
        }
      ],
      "name": "grantRole",
      "outputs": [],
      "stateMutability": "nonpayable",
      "type": "function"
    },
    {
      "inputs": [
        {
          "internalType": "bytes32",
          "name": "role",
          "type": "bytes32"
        },
        {
          "internalType": "address",
          "name": "account",
          "type": "address"
        }
      ],
      "name": "hasRole",
      "outputs": [
        {
          "internalType": "bool",
          "name": "",
          "type": "bool"
        }
      ],
      "stateMutability": "view",
      "type": "function"
    },
    {
      "inputs": [
        {
          "internalType": "bytes32",
          "name": "",
          "type": "bytes32"
        },
        {
          "internalType": "uint256",
          "name": "",
          "type": "uint256"
        }
      ],
      "name": "projectDatasets",
      "outputs": [
        {
          "internalType": "uint256",
          "name": "",
          "type": "uint256"
        }
      ],
      "stateMutability": "view",
      "type": "function"
    },
    {
      "inputs": [
        {
          "internalType": "bytes32",
          "name": "role",
          "type": "bytes32"
        },
        {
          "internalType": "address",
          "name": "callerConfirmation",
          "type": "address"
        }
      ],
      "name": "renounceRole",
      "outputs": [],
      "stateMutability": "nonpayable",
      "type": "function"
    },
    {
      "inputs": [
        {
          "internalType": "bytes32",
          "name": "role",
          "type": "bytes32"
        },
        {
          "internalType": "address",
          "name": "account",
          "type": "address"
        }
      ],
      "name": "revokeRole",
      "outputs": [],
      "stateMutability": "nonpayable",
      "type": "function"
    },
    {
      "inputs": [
        {
          "internalType": "bytes32",
          "name": "",
          "type": "bytes32"
        }
      ],
      "name": "rootToId",
      "outputs": [
        {
          "internalType": "uint256",
          "name": "",
          "type": "uint256"
        }
      ],
      "stateMutability": "view",
      "type": "function"
    },
    {
      "inputs": [
        {
          "internalType": "bytes4",
          "name": "interfaceId",
          "type": "bytes4"
        }
      ],
      "name": "supportsInterface",
      "outputs": [
        {
          "internalType": "bool",
          "name": "",
          "type": "bool"
        }
      ],
      "stateMutability": "view",
      "type": "function"
    },
    {
      "inputs": [
        {
          "internalType": "uint256",
          "name": "id",
          "type": "uint256"
        }
      ],
      "name": "verifyDataset",
      "outputs": [],
      "stateMutability": "nonpayable",
      "type": "function"
    }
  ],
  "bytecode": "0x60806040523480156200001157600080fd5b50600180819055506200002e6000801b336200006860201b60201c565b50620000617f0ce23c3e399818cfee81a7ab0880f714e53d7672b08df0fa62f2843416e1ea09336200006860201b60201c565b50620001dd565b60006200007c83836200016b60201b60201c565b6200016057600160008085815260200190815260200160002060000160008473ffffffffffffffffffffffffffffffffffffffff1673ffffffffffffffffffffffffffffffffffffffff16815260200190815260200160002060006101000a81548160ff021916908315150217905550620000fc620001d560201b60201c565b73ffffffffffffffffffffffffffffffffffffffff168273ffffffffffffffffffffffffffffffffffffffff16847f2f8788117e7eff1d82e926ec794901d17c78024a50270940304540a733656f0d60405160405180910390a46001905062000165565b600090505b92915050565b600080600084815260200190815260200160002060000160008373ffffffffffffffffffffffffffffffffffffffff1673ffffffffffffffffffffffffffffffffffffffff16815260200190815260200160002060009054906101000a900460ff16905092915050565b600033905090565b6126fd80620001ed6000396000f3fe608060405234801561001057600080fd5b50600436106101375760003560e01c80636ed37a1d116100b8578063a217fddf1161007c578063a217fddf146103c9578063d547741f146103e7578063e7705db614610403578063ee00422114610421578063fe5b26ca14610451578063feaf91e61461046d57610137565b80636ed37a1d146102d957806374f96b62146103095780638fa2e2471461033957806391d148541461036957806395a08e551461039957610137565b80632f2ff15d116100ff5780632f2ff15d1461022157806336568abe1461023d57806351cec0d2146102595780636259eace1461028957806369311ea6146102a557610137565b806301ffc9a71461013c5780631af8e9761461016c5780631cff85e11461018a578063248a9ca3146101c15780632ab2a7c2146101f1575b600080fd5b610156600480360381019061015191906118a0565b61049d565b60405161016391906118e8565b60405180910390f35b610174610517565b604051610181919061191c565b60405180910390f35b6101a4600480360381019061019f9190611963565b610521565b6040516101b89897969594939291906119ea565b60405180910390f35b6101db60048036038101906101d69190611a94565b610596565b6040516101e89190611ac1565b60405180910390f35b61020b60048036038101906102069190611adc565b6105b5565b6040516102189190611caa565b60405180910390f35b61023b60048036038101906102369190611cf8565b6107cb565b005b61025760048036038101906102529190611cf8565b6107ed565b005b610273600480360381019061026e9190611a94565b610868565b604051610280919061191c565b60405180910390f35b6102a3600480360381019061029e9190611963565b610880565b005b6102bf60048036038101906102ba9190611adc565b6109e9565b6040516102d0959493929190611d54565b60405180910390f35b6102f360048036038101906102ee9190611da7565b610a69565b604051610300919061191c565b60405180910390f35b610323600480360381019061031e9190611963565b610d16565b6040516103309190611f20565b60405180910390f35b610353600480360381019061034e9190611f42565b610e19565b604051610360919061191c565b60405180910390f35b610383600480360381019061037e9190611cf8565b610e4a565b60405161039091906118e8565b60405180910390f35b6103b360048036038101906103ae9190611a94565b610eb4565b6040516103c09190612024565b60405180910390f35b6103d1610feb565b6040516103de9190611ac1565b60405180910390f35b61040160048036038101906103fc9190611cf8565b610ff2565b005b61040b611014565b6040516104189190611ac1565b60405180910390f35b61043b60048036038101906104369190611963565b611038565b6040516104489190612024565b60405180910390f35b61046b6004803603810190610466919061206c565b61116c565b005b61048760048036038101906104829190611a94565b611469565b604051610494919061216e565b60405180910390f35b60007f7965db0b000000000000000000000000000000000000000000000000000000007bffffffffffffffffffffffffffffffffffffffffffffffffffffffff1916827bffffffffffffffffffffffffffffffffffffffffffffffffffffffff19161480610510575061050f826114d4565b5b9050919050565b6000600354905090565b60046020528060005260406000206000915090508060000154908060010154908060020154908060030154908060040160009054906101000a900473ffffffffffffffffffffffffffffffffffffffff16908060050154908060060160009054906101000a900460ff16908060070154905088565b6000806000838152602001908152602001600020600101549050919050565b60606000600354905080841061062257600067ffffffffffffffff8111156105e0576105df612190565b5b60405190808252806020026020018201604052801561061957816020015b6106066117dd565b8152602001906001900390816105fe5790505b509150506107c5565b6000838561063091906121ee565b90508181111561063e578190505b848161064a9190612222565b67ffffffffffffffff81111561066357610662612190565b5b60405190808252806020026020018201604052801561069c57816020015b6106896117dd565b8152602001906001900390816106815790505b50925060008590505b818110156107c157600460006001836106be91906121ee565b815260200190815260200160002060405180610100016040529081600082015481526020016001820154815260200160028201548152602001600382015481526020016004820160009054906101000a900473ffffffffffffffffffffffffffffffffffffffff1673ffffffffffffffffffffffffffffffffffffffff1673ffffffffffffffffffffffffffffffffffffffff168152602001600582015481526020016006820160009054906101000a900460ff161515151581526020016007820154815250508487836107929190612222565b815181106107a3576107a2612256565b5b602002602001018190525080806107b990612285565b9150506106a5565b5050505b92915050565b6107d482610596565b6107dd8161153e565b6107e78383611552565b50505050565b6107f5611643565b73ffffffffffffffffffffffffffffffffffffffff168173ffffffffffffffffffffffffffffffffffffffff1614610859576040517f6697b23200000000000000000000000000000000000000000000000000000000815260040160405180910390fd5b610863828261164b565b505050565b60056020528060005260406000206000915090505481565b7f0ce23c3e399818cfee81a7ab0880f714e53d7672b08df0fa62f2843416e1ea096108aa8161153e565b6000600460008481526020019081526020016000206000015403610903576040517f08c379a00000000000000000000000000000000000000000000000000000000081526004016108fa9061232a565b60405180910390fd5b6004600083815260200190815260200160002060060160009054906101000a900460ff1615610967576040517f08c379a000000000000000000000000000000000000000000000000000000000815260040161095e90612396565b60405180910390fd5b60016004600084815260200190815260200160002060060160006101000a81548160ff0219169083151502179055503373ffffffffffffffffffffffffffffffffffffffff16827f0cb2119558f93121a6278c6b4b75c5a37dc126cb0f6c5d2a8361d608d92e5f10426040516109dd919061191c565b60405180910390a35050565b60066020528160005260406000208181548110610a0557600080fd5b9060005260206000209060040201600091509150508060000154908060010154908060020160009054906101000a900460ff16908060020160019054906101000a900473ffffffffffffffffffffffffffffffffffffffff16908060030154905085565b6000610a7361173d565b6000801b8403610ab8576040517f08c379a0000000000000000000000000000000000000000000000000000000008152600401610aaf90612402565b60405180910390fd5b6000801b8303610afd576040517f08c379a0000000000000000000000000000000000000000000000000000000008152600401610af49061246e565b60405180910390fd5b6000600560008681526020019081526020016000205414610b53576040517f08c379a0000000000000000000000000000000000000000000000000000000008152600401610b4a906124da565b60405180910390fd5b600360008154610b6290612285565b91905081905590506040518061010001604052808281526020018581526020018481526020018381526020013373ffffffffffffffffffffffffffffffffffffffff1681526020014281526020016000151581526020016000815250600460008381526020019081526020016000206000820151816000015560208201518160010155604082015181600201556060820151816003015560808201518160040160006101000a81548173ffffffffffffffffffffffffffffffffffffffff021916908373ffffffffffffffffffffffffffffffffffffffff16021790555060a0820151816005015560c08201518160060160006101000a81548160ff02191690831515021790555060e08201518160070155905050806005600086815260200190815260200160002081905550600760008381526020019081526020016000208190806001815401808255809150506001900390600052602060002001600090919091909150558284827fb3889c6644c490ddb5d8d8c5a04c0b567e27f5a6a150cf071a613a35bfdeaafc853342604051610cff939291906124fa565b60405180910390a4610d0f611783565b9392505050565b606060066000838152602001908152602001600020805480602002602001604051908101604052809291908181526020016000905b82821015610e0e57838290600052602060002090600402016040518060a001604052908160008201548152602001600182015481526020016002820160009054906101000a900460ff1660ff1660ff1681526020016002820160019054906101000a900473ffffffffffffffffffffffffffffffffffffffff1673ffffffffffffffffffffffffffffffffffffffff1673ffffffffffffffffffffffffffffffffffffffff16815260200160038201548152505081526020019060010190610d4b565b505050509050919050565b60076020528160005260406000208181548110610e3557600080fd5b90600052602060002001600091509150505481565b600080600084815260200190815260200160002060000160008373ffffffffffffffffffffffffffffffffffffffff1673ffffffffffffffffffffffffffffffffffffffff16815260200190815260200160002060009054906101000a900460ff16905092915050565b610ebc6117dd565b60006005600084815260200190815260200160002054905060008103610f17576040517f08c379a0000000000000000000000000000000000000000000000000000000008152600401610f0e9061232a565b60405180910390fd5b6004600082815260200190815260200160002060405180610100016040529081600082015481526020016001820154815260200160028201548152602001600382015481526020016004820160009054906101000a900473ffffffffffffffffffffffffffffffffffffffff1673ffffffffffffffffffffffffffffffffffffffff1673ffffffffffffffffffffffffffffffffffffffff168152602001600582015481526020016006820160009054906101000a900460ff16151515158152602001600782015481525050915050919050565b6000801b81565b610ffb82610596565b6110048161153e565b61100e838361164b565b50505050565b7f0ce23c3e399818cfee81a7ab0880f714e53d7672b08df0fa62f2843416e1ea0981565b6110406117dd565b6000600460008481526020019081526020016000206000015403611099576040517f08c379a00000000000000000000000000000000000000000000000000000000081526004016110909061232a565b60405180910390fd5b6004600083815260200190815260200160002060405180610100016040529081600082015481526020016001820154815260200160028201548152602001600382015481526020016004820160009054906101000a900473ffffffffffffffffffffffffffffffffffffffff1673ffffffffffffffffffffffffffffffffffffffff1673ffffffffffffffffffffffffffffffffffffffff168152602001600582015481526020016006820160009054906101000a900460ff161515151581526020016007820154815250509050919050565b60006004600085815260200190815260200160002060000154036111c5576040517f08c379a00000000000000000000000000000000000000000000000000000000081526004016111bc9061257d565b60405180910390fd5b3373ffffffffffffffffffffffffffffffffffffffff166004600085815260200190815260200160002060040160009054906101000a900473ffffffffffffffffffffffffffffffffffffffff1673ffffffffffffffffffffffffffffffffffffffff1614611269576040517f08c379a0000000000000000000000000000000000000000000000000000000008152600401611260906125e9565b60405180910390fd5b60018160ff16101580156112815750600a8160ff1611155b6112c0576040517f08c379a00000000000000000000000000000000000000000000000000000000081526004016112b790612655565b60405180910390fd5b600660008481526020019081526020016000206040518060a001604052808581526020018481526020018360ff1681526020013373ffffffffffffffffffffffffffffffffffffffff168152602001428152509080600181540180825580915050600190039060005260206000209060040201600090919091909150600082015181600001556020820151816001015560408201518160020160006101000a81548160ff021916908360ff16021790555060608201518160020160016101000a81548173ffffffffffffffffffffffffffffffffffffffff021916908373ffffffffffffffffffffffffffffffffffffffff160217905550608082015181600301555050600060056000848152602001908152602001600020549050600081146114115760046000828152602001908152602001600020600701600081548092919061140b90612285565b91905055505b3373ffffffffffffffffffffffffffffffffffffffff1683857f3f062d10628e0c7e573fd0443f5844744e2f26f1a3400f57dbcdf1810b029de8854260405161145b929190612675565b60405180910390a450505050565b6060600760008381526020019081526020016000208054806020026020016040519081016040528092919081815260200182805480156114c857602002820191906000526020600020905b8154815260200190600101908083116114b4575b50505050509050919050565b60007f01ffc9a7000000000000000000000000000000000000000000000000000000007bffffffffffffffffffffffffffffffffffffffffffffffffffffffff1916827bffffffffffffffffffffffffffffffffffffffffffffffffffffffff1916149050919050565b61154f8161154a611643565b61178c565b50565b600061155e8383610e4a565b61163857600160008085815260200190815260200160002060000160008473ffffffffffffffffffffffffffffffffffffffff1673ffffffffffffffffffffffffffffffffffffffff16815260200190815260200160002060006101000a81548160ff0219169083151502179055506115d5611643565b73ffffffffffffffffffffffffffffffffffffffff168273ffffffffffffffffffffffffffffffffffffffff16847f2f8788117e7eff1d82e926ec794901d17c78024a50270940304540a733656f0d60405160405180910390a46001905061163d565b600090505b92915050565b600033905090565b60006116578383610e4a565b1561173257600080600085815260200190815260200160002060000160008473ffffffffffffffffffffffffffffffffffffffff1673ffffffffffffffffffffffffffffffffffffffff16815260200190815260200160002060006101000a81548160ff0219169083151502179055506116cf611643565b73ffffffffffffffffffffffffffffffffffffffff168273ffffffffffffffffffffffffffffffffffffffff16847ff6391f5c32d9c69d2a47ea670b442974b53935d1edc7fd64eb21e047a839171b60405160405180910390a460019050611737565b600090505b92915050565b600260015403611779576040517f3ee5aeb500000000000000000000000000000000000000000000000000000000815260040160405180910390fd5b6002600181905550565b60018081905550565b6117968282610e4a565b6117d95780826040517fe2517d3f0000000000000000000000000000000000000000000000000000000081526004016117d092919061269e565b60405180910390fd5b5050565b60405180610100016040528060008152602001600080191681526020016000801916815260200160008019168152602001600073ffffffffffffffffffffffffffffffffffffffff16815260200160008152602001600015158152602001600081525090565b600080fd5b60007fffffffff0000000000000000000000000000000000000000000000000000000082169050919050565b61187d81611848565b811461188857600080fd5b50565b60008135905061189a81611874565b92915050565b6000602082840312156118b6576118b5611843565b5b60006118c48482850161188b565b91505092915050565b60008115159050919050565b6118e2816118cd565b82525050565b60006020820190506118fd60008301846118d9565b92915050565b6000819050919050565b61191681611903565b82525050565b6000602082019050611931600083018461190d565b92915050565b61194081611903565b811461194b57600080fd5b50565b60008135905061195d81611937565b92915050565b60006020828403121561197957611978611843565b5b60006119878482850161194e565b91505092915050565b6000819050919050565b6119a381611990565b82525050565b600073ffffffffffffffffffffffffffffffffffffffff82169050919050565b60006119d4826119a9565b9050919050565b6119e4816119c9565b82525050565b600061010082019050611a00600083018b61190d565b611a0d602083018a61199a565b611a1a604083018961199a565b611a27606083018861199a565b611a3460808301876119db565b611a4160a083018661190d565b611a4e60c08301856118d9565b611a5b60e083018461190d565b9998505050505050505050565b611a7181611990565b8114611a7c57600080fd5b50565b600081359050611a8e81611a68565b92915050565b600060208284031215611aaa57611aa9611843565b5b6000611ab884828501611a7f565b91505092915050565b6000602082019050611ad6600083018461199a565b92915050565b60008060408385031215611af357611af2611843565b5b6000611b018582860161194e565b9250506020611b128582860161194e565b9150509250929050565b600081519050919050565b600082825260208201905092915050565b6000819050602082019050919050565b611b5181611903565b82525050565b611b6081611990565b82525050565b611b6f816119c9565b82525050565b611b7e816118cd565b82525050565b61010082016000820151611b9b6000850182611b48565b506020820151611bae6020850182611b57565b506040820151611bc16040850182611b57565b506060820151611bd46060850182611b57565b506080820151611be76080850182611b66565b5060a0820151611bfa60a0850182611b48565b5060c0820151611c0d60c0850182611b75565b5060e0820151611c2060e0850182611b48565b50505050565b6000611c328383611b84565b6101008301905092915050565b6000602082019050919050565b6000611c5782611b1c565b611c618185611b27565b9350611c6c83611b38565b8060005b83811015611c9d578151611c848882611c26565b9750611c8f83611c3f565b925050600181019050611c70565b5085935050505092915050565b60006020820190508181036000830152611cc48184611c4c565b905092915050565b611cd5816119c9565b8114611ce057600080fd5b50565b600081359050611cf281611ccc565b92915050565b60008060408385031215611d0f57611d0e611843565b5b6000611d1d85828601611a7f565b9250506020611d2e85828601611ce3565b9150509250929050565b600060ff82169050919050565b611d4e81611d38565b82525050565b600060a082019050611d69600083018861190d565b611d76602083018761199a565b611d836040830186611d45565b611d9060608301856119db565b611d9d608083018461190d565b9695505050505050565b600080600060608486031215611dc057611dbf611843565b5b6000611dce86828701611a7f565b9350506020611ddf86828701611a7f565b9250506040611df086828701611a7f565b9150509250925092565b600081519050919050565b600082825260208201905092915050565b6000819050602082019050919050565b611e2f81611d38565b82525050565b60a082016000820151611e4b6000850182611b48565b506020820151611e5e6020850182611b57565b506040820151611e716040850182611e26565b506060820151611e846060850182611b66565b506080820151611e976080850182611b48565b50505050565b6000611ea98383611e35565b60a08301905092915050565b6000602082019050919050565b6000611ecd82611dfa565b611ed78185611e05565b9350611ee283611e16565b8060005b83811015611f13578151611efa8882611e9d565b9750611f0583611eb5565b925050600181019050611ee6565b5085935050505092915050565b60006020820190508181036000830152611f3a8184611ec2565b905092915050565b60008060408385031215611f5957611f58611843565b5b6000611f6785828601611a7f565b9250506020611f788582860161194e565b9150509250929050565b61010082016000820151611f996000850182611b48565b506020820151611fac6020850182611b57565b506040820151611fbf6040850182611b57565b506060820151611fd26060850182611b57565b506080820151611fe56080850182611b66565b5060a0820151611ff860a0850182611b48565b5060c082015161200b60c0850182611b75565b5060e082015161201e60e0850182611b48565b50505050565b60006101008201905061203a6000830184611f82565b92915050565b61204981611d38565b811461205457600080fd5b50565b60008135905061206681612040565b92915050565b60008060006060848603121561208557612084611843565b5b60006120938682870161194e565b93505060206120a486828701611a7f565b92505060406120b586828701612057565b9150509250925092565b600081519050919050565b600082825260208201905092915050565b6000819050602082019050919050565b60006120f78383611b48565b60208301905092915050565b6000602082019050919050565b600061211b826120bf565b61212581856120ca565b9350612130836120db565b8060005b8381101561216157815161214888826120eb565b975061215383612103565b925050600181019050612134565b5085935050505092915050565b600060208201905081810360008301526121888184612110565b905092915050565b7f4e487b7100000000000000000000000000000000000000000000000000000000600052604160045260246000fd5b7f4e487b7100000000000000000000000000000000000000000000000000000000600052601160045260246000fd5b60006121f982611903565b915061220483611903565b925082820190508082111561221c5761221b6121bf565b5b92915050565b600061222d82611903565b915061223883611903565b92508282039050818111156122505761224f6121bf565b5b92915050565b7f4e487b7100000000000000000000000000000000000000000000000000000000600052603260045260246000fd5b600061229082611903565b91507fffffffffffffffffffffffffffffffffffffffffffffffffffffffffffffffff82036122c2576122c16121bf565b5b600182019050919050565b600082825260208201905092915050565b7f44617461736574206e6f7420666f756e64000000000000000000000000000000600082015250565b60006123146011836122cd565b915061231f826122de565b602082019050919050565b6000602082019050818103600083015261234381612307565b9050919050565b7f416c726561647920766572696669656400000000000000000000000000000000600082015250565b60006123806010836122cd565b915061238b8261234a565b602082019050919050565b600060208201905081810360008301526123af81612373565b9050919050565b7f496e76616c696420726f6f740000000000000000000000000000000000000000600082015250565b60006123ec600c836122cd565b91506123f7826123b6565b602082019050919050565b6000602082019050818103600083015261241b816123df565b9050919050565b7f496e76616c6964206d616e696665737420686173680000000000000000000000600082015250565b60006124586015836122cd565b915061246382612422565b602082019050919050565b600060208201905081810360008301526124878161244b565b9050919050565b7f4461746173657420616c726561647920616e63686f7265640000000000000000600082015250565b60006124c46018836122cd565b91506124cf8261248e565b602082019050919050565b600060208201905081810360008301526124f3816124b7565b9050919050565b600060608201905061250f600083018661199a565b61251c60208301856119db565b612529604083018461190d565b949350505050565b7f536f757263652064617461736574206e6f7420666f756e640000000000000000600082015250565b60006125676018836122cd565b915061257282612531565b602082019050919050565b600060208201905081810360008301526125968161255a565b9050919050565b7f4e6f7420617574686f72697a6564000000000000000000000000000000000000600082015250565b60006125d3600e836122cd565b91506125de8261259d565b602082019050919050565b60006020820190508181036000830152612602816125c6565b9050919050565b7f496e76616c696420776569676874000000000000000000000000000000000000600082015250565b600061263f600e836122cd565b915061264a82612609565b602082019050919050565b6000602082019050818103600083015261266e81612632565b9050919050565b600060408201905061268a6000830185611d45565b612697602083018461190d565b9392505050565b60006040820190506126b360008301856119db565b6126c0602083018461199a565b939250505056fea264697066735822122057705fff3a9c234289722a7ab215dd5ed76a8df810ef8bc508cd5db20831908964736f6c63430008140033",
  "linkReferences": {},
  "deployedLinkReferences": {}
}