{
  "_format": "hh3-artifact-1",
  "contractName": "DARARegistry",
  "sourceName": "contracts/DARARegistry.sol",
  "abi": [
    {
      "inputs": [],
      "stateMutability": "nonpayable",
      "type": "constructor"
    },
    {
      "inputs": [],
      "name": "AccessControlBadConfirmation",
      "type": "error"
    },
    {
      "inputs": [
        {
          "internalType": "address",
          "name": "account",
          "type": "address"
        },
        {
          "internalType": "bytes32",
          "name": "neededRole",
          "type": "bytes32"
        }
      ],
      "name": "AccessControlUnauthorizedAccount",
      "type": "error"
    },
    {
      "inputs": [],
      "name": "ReentrancyGuardReentrantCall",
      "type": "error"
    },
    {
      "anonymous": false,
      "inputs": [
        {
          "indexed": true,
          "internalType": "uint256",
          "name": "fromId",
          "type": "uint256"
        },
        {
          "indexed": true,
          "internalType": "bytes32",
          "name": "citedRoot",
          "type": "bytes32"
        },
        {
          "indexed": false,
          "internalType": "uint8",
          "name": "weight",
          "type": "uint8"
        },
        {
          "indexed": true,
          "internalType": "address",
          "name": "citer",
          "type": "address"
        },
        {
          "indexed": false,
          "internalType": "uint256",
          "name": "timestamp",
          "type": "uint256"
        }
      ],
      "name": "CitationAdded",
      "type": "event"
    },
    {
      "anonymous": false,
      "inputs": [
        {
          "indexed": true,
          "internalType": "uint256",
          "name": "id",
          "type": "uint256"
        },
        {
          "indexed": true,
          "internalType": "bytes32",
          "name": "root",
          "type": "bytes32"
        },
        {
          "indexed": true,
          "internalType": "bytes32",
          "name": "manifestHash",
          "type": "bytes32"
        },
        {
          "indexed": false,
          "internalType": "bytes32",
          "name": "projectId",
          "type": "bytes32"
        },
        {
          "indexed": false,
          "internalType": "address",
          "name": "uploader",
          "type": "address"
        },
        {
          "indexed": false,
          "internalType": "uint256",
          "name": "timestamp",
          "type": "uint256"
        }
      ],
      "name": "DatasetAnchored",
      "type": "event"
    },
    {
      "anonymous": false,
      "inputs": [
        {
          "indexed": true,
          "internalType": "uint256",
          "name": "id",
          "type": "uint256"
        },
        {
          "indexed": true,
          "internalType": "address",
          "name": "verifier",
          "type": "address"
        },
        {
          "indexed": false,
          "internalType": "uint256",
          "name": "timestamp",
          "type": "uint256"
        }
      ],
      "name": "DatasetVerified",
      "type": "event"
    },
    {
      "anonymous": false,
      "inputs": [
        {
          "indexed": true,
          "internalType": "bytes32",
          "name": "role",
          "type": "bytes32"
        },
        {
          "indexed": true,
          "internalType": "bytes32",
          "name": "previousAdminRole",
          "type": "bytes32"
        },
        {
          "indexed": true,
          "internalType": "bytes32",
          "name": "newAdminRole",
          "type": "bytes32"
        }
      ],
      "name": "RoleAdminChanged",
      "type": "event"
    },
    {
      "anonymous": false,
      "inputs": [
        {
          "indexed": true,
          "internalType": "bytes32",
          "name": "role",
          "type": "bytes32"
        },
        {
          "indexed": true,
          "internalType": "address",
          "name": "account",
          "type": "address"
        },
        {
          "indexed": true,
          "internalType": "address",
          "name": "sender",
          "type": "address"
        }
      ],
      "name": "RoleGranted",
      "type": "event"
    },
    {
      "anonymous": false,
      "inputs": [
        {
          "indexed": true,
          "internalType": "bytes32",
          "name": "role",
          "type": "bytes32"
        },
        {
          "indexed": true,
          "internalType": "address",
          "name": "account",
          "type": "address"
        },
        {
          "indexed": true,
          "internalType": "address",
          "name": "sender",
          "type": "address"
        }
      ],
      "name": "RoleRevoked",
      "type": "event"
    },
    {
      "inputs": [],
      "name": "DEFAULT_ADMIN_ROLE",
      "outputs": [
        {
          "internalType": "bytes32",
          "name": "",
          "type": "bytes32"
        }
      ],
      "stateMutability": "view",
      "type": "function"
    },
    {
      "inputs": [],
      "name": "VERIFIER_ROLE",
      "outputs": [
        {
          "internalType": "bytes32",
          "name": "",
          "type": "bytes32"
        }
      ],
      "stateMutability": "view",
      "type": "function"
    },
    {
      "inputs": [
        {
          "internalType": "bytes32",
          "name": "root",
          "type": "bytes32"
        },
        {
          "internalType": "bytes32",
          "name": "manifestHash",
          "type": "bytes32"
        },
        {
          "internalType": "bytes32",
          "name": "projectId",
          "type": "bytes32"
        }
      ],
      "name": "anchor",
      "outputs": [
        {
          "internalType": "uint256",
          "name": "id",
          "type": "uint256"
        }
      ],
      "stateMutability": "nonpayable",
      "type": "function"
    },
    {
      "inputs": [
        {
          "internalType": "uint256",
          "name": "",
          "type": "uint256"
        },
        {
          "internalType": "uint256",
          "name": "",
          "type": "uint256"
        }
      ],
      "name": "citations",
      "outputs": [
        {
          "internalType": "uint256",
          "name": "fromId",
          "type": "uint256"
        },
        {
          "internalType": "bytes32",
          "name": "citedRoot",
          "type": "bytes32"
        },
        {
          "internalType": "uint8",
          "name": "weight",
          "type": "uint8"
        },
        {
          "internalType": "address",
          "name": "citer",
          "type": "address"
        },
        {
          "internalType": "uint256",
          "name": "timestamp",
          "type": "uint256"
        }
      ],
      "stateMutability": "view",
      "type": "function"
    },
    {
      "inputs": [
        {
          "internalType": "uint256",
          "name": "fromId",
          "type": "uint256"
        },
        {
          "internalType": "bytes32",
          "name": "citedRoot",
          "type": "bytes32"
        },
        {
          "internalType": "uint8",
          "name": "weight",
          "type": "uint8"
        }
      ],
      "name": "cite",
      "outputs": [],
      "stateMutability": "nonpayable",
      "type": "function"
    },
    {
      "inputs": [
        {
          "internalType": "uint256",
          "name": "",
          "type": "uint256"
        }
      ],
      "name": "datasets",
      "outputs": [
        {
          "internalType": "uint256",
          "name": "id",
          "type": "uint256"
        },
        {
          "internalType": "bytes32",
          "name": "root",
          "type": "bytes32"
        },
        {
          "internalType": "bytes32",
          "name": "manifestHash",
          "type": "bytes32"
        },
        {
          "internalType": "bytes32",
          "name": "projectId",
          "type": "bytes32"
        },
        {
          "internalType": "address",
          "name": "uploader",
          "type": "address"
        },
        {
          "internalType": "uint256",
          "name": "timestamp",
          "type": "uint256"
        },
        {
          "internalType": "bool",
          "name": "verified",
          "type": "bool"
        },
        {
          "internalType": "uint256",
          "name": "citationCount",
          "type": "uint256"
        }
      ],
      "stateMutability": "view",
      "type": "function"
    },
    {
      "inputs": [
        {
          "internalType": "uint256",
          "name": "id",
          "type": "uint256"
        }
      ],
      "name": "getCitations",
      "outputs": [
        {
          "components": [
            {
              "internalType": "uint256",
              "name": "fromId",
              "type": "uint256"
            },
            {
              "internalType": "bytes32",
              "name": "citedRoot",
              "type": "bytes32"
            },
            {
              "internalType": "uint8",
              "name": "weight",
              "type": "uint8"
            },
            {
              "internalType": "address",
              "name": "citer",
              "type": "address"
            },
            {
              "internalType": "uint256",
              "name": "timestamp",
              "type": "uint256"
            }
          ],
          "internalType": "struct DARARegistry.Citation[]",
          "name": "",
          "type": "tuple[]"
        }
      ],
      "stateMutability": "view",
      "type": "function"
    },
    {
      "inputs": [
        {
          "internalType": "uint256",
          "name": "id",
          "type": "uint256"
        }
      ],
      "name": "getDataset",
      "outputs": [
        {
          "components": [
            {
              "internalType": "uint256",
              "name": "id",
              "type": "uint256"
            },
            {
              "internalType": "bytes32",
              "name": "root",
              "type": "bytes32"
            },
            {
              "internalType": "bytes32",
              "name": "manifestHash",
              "type": "bytes32"
            },
            {
              "internalType": "bytes32",
              "name": "projectId",
              "type": "bytes32"
            },
            {
              "internalType": "address",
              "name": "uploader",
              "type": "address"
            },
            {
              "internalType": "uint256",
              "name": "timestamp",
              "type": "uint256"
            },
            {
              "internalType": "bool",
              "name": "verified",
              "type": "bool"
            },
            {
              "internalType": "uint256",
              "name": "citationCount",
              "type": "uint256"
            }
          ],
          "internalType": "struct DARARegistry.Dataset",
          "name": "",
          "type": "tuple"
        }
      ],
      "stateMutability": "view",
      "type": "function"
    },
    {
      "inputs": [
        {
          "internalType": "bytes32",
          "name": "root",
          "type": "bytes32"
        }
      ],
      "name": "getDatasetByRoot",
      "outputs": [
        {
          "components": [
            {
              "internalType": "uint256",
              "name": "id",
              "type": "uint256"
            },
            {
              "internalType": "bytes32",
              "name": "root",
              "type": "bytes32"
            },
            {
              "internalType": "bytes32",
              "name": "manifestHash",
              "type": "bytes32"
            },
            {
              "internalType": "bytes32",
              "name": "projectId",
              "type": "bytes32"
            },
            {
              "internalType": "address",
              "name": "uploader",
              "type": "address"
            },
            {
              "internalType": "uint256",
              "name": "timestamp",
              "type": "uint256"
            },
            {
              "internalType": "bool",
              "name": "verified",
              "type": "bool"
            },
            {
              "internalType": "uint256",
              "name": "citationCount",
              "type": "uint256"
            }
          ],
          "internalType": "struct DARARegistry.Dataset",
          "name": "",
          "type": "tuple"
        }
      ],
      "stateMutability": "view",
      "type": "function"
    },
    {
      "inputs": [
        {
          "internalType": "uint256",
          "name": "offset",
          "type": "uint256"
        },
        {
          "internalType": "uint256",
          "name": "limit",
          "type": "uint256"
        }
      ],
      "name": "getDatasets",
      "outputs": [
        {
          "components": [
            {
              "internalType": "uint256",
              "name": "id",
              "type": "uint256"
            },
            {
              "internalType": "bytes32",
              "name": "root",
              "type": "bytes32"
            },
            {
              "internalType": "bytes32",
              "name": "manifestHash",
              "type": "bytes32"
            },
            {
              "internalType": "bytes32",
              "name": "projectId",
              "type": "bytes32"
            },
            {
              "internalType": "address",
              "name": "uploader",
              "type": "address"
            },
            {
              "internalType": "uint256",
              "name": "timestamp",
              "type": "uint256"
            },
            {
              "internalType": "bool",
              "name": "verified",
              "type": "bool"
            },
            {
              "internalType": "uint256",
              "name": "citationCount",
              "type": "uint256"
            }
          ],
          "internalType": "struct DARARegistry.Dataset[]",
          "name": "result",
          "type": "tuple[]"
        }
      ],
      "stateMutability": "view",
      "type": "function"
    },
    {
      "inputs": [
        {
          "internalType": "bytes32",
          "name": "projectId",
          "type": "bytes32"
        }
      ],
      "name": "getProjectDatasets",
      "outputs": [
        {
          "internalType": "uint256[]",
          "name": "",
          "type": "uint256[]"
        }
      ],
      "stateMutability": "view",
      "type": "function"
    },
    {
      "inputs": [
        {
          "internalType": "bytes32",
          "name": "role",
          "type": "bytes32"
        }
      ],
      "name": "getRoleAdmin",
      "outputs": [
        {
          "internalType": "bytes32",
          "name": "",
          "type": "bytes32"
        }
      ],
      "stateMutability": "view",
      "type": "function"
    },
    {
      "inputs": [],
      "name": "getTotalDatasets",
      "outputs": [
        {
          "internalType": "uint256",
          "name": "",
          "type": "uint256"
        }
      ],
      "stateMutability": "view",
      "type": "function"
    },
    {
      "inputs": [
        {
          "internalType": "bytes32",
          "name": "role",
          "type": "bytes32"
        },
        {
          "internalType": "address",
          "name": "account",
          "type": "address"
        }
      ],
      "name": "grantRole",
      "outputs": [],
      "stateMutability": "nonpayable",
      "type": "function"
    },
    {
      "inputs": [
        {
          "internalType": "bytes32",
          "name": "role",
          "type": "bytes32"
        },
        {
          "internalType": "address",
          "name": "account",
          "type": "address"
        }
      ],
      "name": "hasRole",
      "outputs": [
        {
          "internalType": "bool",
          "name": "",
          "type": "bool"
        }
      ],
      "stateMutability": "view",
      "type": "function"
    },
    {
      "inputs": [
        {
          "internalType": "bytes32",
          "name": "",
          "type": "bytes32"
        },
        {
          "internalType": "uint256",
          "name": "",
          "type": "uint256"
        }
      ],
      "name": "projectDatasets",
      "outputs": [
        {
          "internalType": "uint256",
          "name": "",
          "type": "uint256"
        }
      ],
      "stateMutability": "view",
      "type": "function"
    },
    {
      "inputs": [
        {
          "internalType": "bytes32",
          "name": "role",
          "type": "bytes32"
        },
        {
          "internalType": "address",
          "name": "callerConfirmation",
          "type": "address"
        }
      ],
      "name": "renounceRole",
      "outputs": [],
      "stateMutability": "nonpayable",
      "type": "function"
    },
    {
      "inputs": [
        {
          "internalType": "bytes32",
          "name": "role",
          "type": "bytes32"
        },
        {
          "internalType": "address",
          "name": "account",
          "type": "address"
        }
      ],
      "name": "revokeRole",
      "outputs": [],
      "stateMutability": "nonpayable",
      "type": "function"
    },
    {
      "inputs": [
        {
          "internalType": "bytes32",
          "name": "",
          "type": "bytes32"
        }
      ],
      "name": "rootToId",
      "outputs": [
        {
          "internalType": "uint256",
          "name": "",
          "type": "uint256"
        }
      ],
      "stateMutability": "view",
      "type": "function"
    },
    {
      "inputs": [
        {
          "internalType": "bytes4",
          "name": "interfaceId",
          "type": "bytes4"
        }
      ],
      "name": "supportsInterface",
      "outputs": [
        {
          "internalType": "bool",
          "name": "",
          "type": "bool"
        }
      ],
      "stateMutability": "view",
      "type": "function"
    },
    {
      "inputs": [
        {
          "internalType": "uint256",
          "name": "id",
          "type": "uint256"
        }
      ],
      "name": "verifyDataset",
      "outputs": [],
      "stateMutability": "nonpayable",
      "type": "function"
    }
  ],
  "bytecode": "0x608060405234801561000f575f80fd5b506001805561001e5f3361004f565b506100497f0ce23c3e399818cfee81a7ab0880f714e53d7672b08df0fa62f2843416e1ea093361004f565b506100f8565b5f828152602081815260408083206001600160a01b038516845290915281205460ff166100ef575f838152602081815260408083206001600160a01b03861684529091529020805460ff191660011790556100a73390565b6001600160a01b0316826001600160a01b0316847f2f8788117e7eff1d82e926ec794901d17c78024a50270940304540a733656f0d60405160405180910390a45060016100f2565b505f5b92915050565b611396806101055f395ff3fe608060405234801561000f575f80fd5b5060043610610132575f3560e01c80636ed37a1d116100b4578063a217fddf11610079578063a217fddf14610376578063d547741f1461037d578063e7705db614610390578063ee004221146103b7578063fe5b26ca146103ca578063feaf91e6146103dd575f80fd5b80636ed37a1d146102fd57806374f96b62146103105780638fa2e2471461033057806391d148541461034357806395a08e5514610356575f80fd5b80632f2ff15d116100fa5780632f2ff15d1461025857806336568abe1461026d57806351cec0d2146102805780636259eace1461029f57806369311ea6146102b2575f80fd5b806301ffc9a7146101365780631af8e9761461015e5780631cff85e114610170578063248a9ca3146102165780632ab2a7c214610238575b5f80fd5b61014961014436600461105b565b6103fd565b60405190151581526020015b60405180910390f35b6003545b604051908152602001610155565b6101d061017e366004611082565b600460208190525f9182526040909120805460018201546002830154600384015494840154600585015460068601546007909601549496939592946001600160a01b0390921692909160ff9091169088565b6040805198895260208901979097529587019490945260608601929092526001600160a01b0316608085015260a0840152151560c083015260e082015261010001610155565b610162610224366004611082565b5f9081526020819052604090206001015490565b61024b610246366004611099565b610433565b6040516101559190611111565b61026b61026636600461115f565b6105bf565b005b61026b61027b36600461115f565b6105e9565b61016261028e366004611082565b60056020525f908152604090205481565b61026b6102ad366004611082565b610621565b6102c56102c0366004611099565b610731565b60408051958652602086019490945260ff909216928401929092526001600160a01b039091166060830152608082015260a001610155565b61016261030b366004611198565b610787565b61032361031e366004611082565b6109b2565b60405161015591906111c1565b61016261033e366004611099565b610a5a565b61014961035136600461115f565b610a85565b610369610364366004611082565b610aad565b604051610155919061123a565b6101625f81565b61026b61038b36600461115f565b610b5f565b6101627f0ce23c3e399818cfee81a7ab0880f714e53d7672b08df0fa62f2843416e1ea0981565b6103696103c5366004611082565b610b83565b61026b6103d8366004611249565b610c31565b6103f06103eb366004611082565b610e4d565b6040516101559190611284565b5f6001600160e01b03198216637965db0b60e01b148061042d57506301ffc9a760e01b6001600160e01b03198316145b92915050565b60035460609080841061047957604080515f8082526020820190925290610470565b61045d611018565b8152602001906001900390816104555790505b5091505061042d565b5f61048484866112e3565b9050818111156104915750805b61049b85826112f6565b67ffffffffffffffff8111156104b3576104b36112bb565b6040519080825280602002602001820160405280156104ec57816020015b6104d9611018565b8152602001906001900390816104d15790505b509250845b818110156105b65760045f6105078360016112e3565b815260208082019290925260409081015f20815161010081018352815481526001820154938101939093526002810154918301919091526003810154606083015260048101546001600160a01b03166080830152600581015460a0830152600681015460ff16151560c08301526007015460e08201528461058888846112f6565b8151811061059857610598611309565b602002602001018190525080806105ae9061131d565b9150506104f1565b50505092915050565b5f828152602081905260409020600101546105d981610eac565b6105e38383610eb9565b50505050565b6001600160a01b03811633146106125760405163334bd91960e11b815260040160405180910390fd5b61061c8282610f48565b505050565b7f0ce23c3e399818cfee81a7ab0880f714e53d7672b08df0fa62f2843416e1ea0961064b81610eac565b5f8281526004602052604081205490036106805760405162461bcd60e51b815260040161067790611335565b60405180910390fd5b5f8281526004602052604090206006015460ff16156106d45760405162461bcd60e51b815260206004820152601060248201526f105b1c9958591e481d995c9a599a595960821b6044820152606401610677565b5f8281526004602052604090819020600601805460ff1916600117905551339083907f0cb2119558f93121a6278c6b4b75c5a37dc126cb0f6c5d2a8361d608d92e5f10906107259042815260200190565b60405180910390a35050565b6006602052815f5260405f20818154811061074a575f80fd5b5f9182526020909120600490910201805460018201546002830154600390930154919450925060ff82169161010090046001600160a01b03169085565b5f610790610fb1565b836107cc5760405162461bcd60e51b815260206004820152600c60248201526b125b9d985b1a59081c9bdbdd60a21b6044820152606401610677565b826108115760405162461bcd60e51b8152602060048201526015602482015274092dcecc2d8d2c840dac2dcd2cccae6e840d0c2e6d605b1b6044820152606401610677565b5f848152600560205260409020541561086c5760405162461bcd60e51b815260206004820152601860248201527f4461746173657420616c726561647920616e63686f72656400000000000000006044820152606401610677565b60035f815461087a9061131d565b918290555060408051610100810182528281526020808201888152828401888152606080850189815233608087018181524260a089018181525f60c08b0181815260e08c018281528e83526004808d528e84209d518e559a516001808f0191909155995160028e0155965160038d01559351988b0180546001600160a01b0319166001600160a01b03909a1699909917909855516005808b0191909155915160068a01805460ff191691151591909117905592516007988901558d865286528785208990558a855295855286842080549384018155845292849020909101869055845188815292830193909352928101929092529192508491869184917fb3889c6644c490ddb5d8d8c5a04c0b567e27f5a6a150cf071a613a35bfdeaafc910160405180910390a46109ab60018055565b9392505050565b606060065f8381526020019081526020015f20805480602002602001604051908101604052809291908181526020015f905b82821015610a4f575f8481526020908190206040805160a081018252600486029092018054835260018082015484860152600282015460ff8116938501939093526101009092046001600160a01b0316606084015260030154608083015290835290920191016109e4565b505050509050919050565b6007602052815f5260405f208181548110610a73575f80fd5b905f5260205f20015f91509150505481565b5f918252602082815260408084206001600160a01b0393909316845291905290205460ff1690565b610ab5611018565b5f8281526005602052604081205490819003610ae35760405162461bcd60e51b815260040161067790611335565b5f908152600460208181526040928390208351610100810185528154815260018201549281019290925260028101549382019390935260038301546060820152908201546001600160a01b03166080820152600582015460a0820152600682015460ff16151560c082015260079091015460e082015292915050565b5f82815260208190526040902060010154610b7981610eac565b6105e38383610f48565b610b8b611018565b5f828152600460205260408120549003610bb75760405162461bcd60e51b815260040161067790611335565b505f908152600460208181526040928390208351610100810185528154815260018201549281019290925260028101549382019390935260038301546060820152908201546001600160a01b03166080820152600582015460a0820152600682015460ff16151560c082015260079091015460e082015290565b5f838152600460205260408120549003610c8d5760405162461bcd60e51b815260206004820152601860248201527f536f757263652064617461736574206e6f7420666f756e6400000000000000006044820152606401610677565b5f83815260046020819052604090912001546001600160a01b03163314610ce75760405162461bcd60e51b815260206004820152600e60248201526d139bdd08185d5d1a1bdc9a5e995960921b6044820152606401610677565b60018160ff1610158015610cff5750600a8160ff1611155b610d3c5760405162461bcd60e51b815260206004820152600e60248201526d125b9d985b1a59081dd95a59da1d60921b6044820152606401610677565b5f838152600660209081526040808320815160a08101835287815280840187815260ff80881683860190815233606085019081524260808601908152865460018181018955978b52898b20965160049091029096019586559351958501959095555160028401805495516001600160a01b0316610100026001600160a81b0319909616919092161793909317909255905160039091015584835260059091529020548015610e06575f818152600460205260408120600701805491610e008361131d565b91905055505b6040805160ff841681524260208201523391859187917f3f062d10628e0c7e573fd0443f5844744e2f26f1a3400f57dbcdf1810b029de8910160405180910390a450505050565b5f81815260076020908152604091829020805483518184028101840190945280845260609392830182828015610ea057602002820191905f5260205f20905b815481526020019060010190808311610e8c575b50505050509050919050565b610eb68133610fdb565b50565b5f610ec48383610a85565b610f41575f838152602081815260408083206001600160a01b03861684529091529020805460ff19166001179055610ef93390565b6001600160a01b0316826001600160a01b0316847f2f8788117e7eff1d82e926ec794901d17c78024a50270940304540a733656f0d60405160405180910390a450600161042d565b505f61042d565b5f610f538383610a85565b15610f41575f838152602081815260408083206001600160a01b0386168085529252808320805460ff1916905551339286917ff6391f5c32d9c69d2a47ea670b442974b53935d1edc7fd64eb21e047a839171b9190a450600161042d565b600260015403610fd457604051633ee5aeb560e01b815260040160405180910390fd5b6002600155565b610fe58282610a85565b6110145760405163e2517d3f60e01b81526001600160a01b038216600482015260248101839052604401610677565b5050565b60408051610100810182525f80825260208201819052918101829052606081018290526080810182905260a0810182905260c0810182905260e081019190915290565b5f6020828403121561106b575f80fd5b81356001600160e01b0319811681146109ab575f80fd5b5f60208284031215611092575f80fd5b5035919050565b5f80604083850312156110aa575f80fd5b50508035926020909101359150565b8051825260208101516020830152604081015160408301526060810151606083015260018060a01b03608082015116608083015260a081015160a083015260c0810151151560c083015260e081015160e08301525050565b602080825282518282018190525f9190848201906040850190845b818110156111535761113f8385516110b9565b92840192610100929092019160010161112c565b50909695505050505050565b5f8060408385031215611170575f80fd5b8235915060208301356001600160a01b038116811461118d575f80fd5b809150509250929050565b5f805f606084860312156111aa575f80fd5b505081359360208301359350604090920135919050565b602080825282518282018190525f919060409081850190868401855b8281101561122d5781518051855286810151878601528581015160ff16868601526060808201516001600160a01b0316908601526080908101519085015260a090930192908501906001016111dd565b5091979650505050505050565b610100810161042d82846110b9565b5f805f6060848603121561125b575f80fd5b8335925060208401359150604084013560ff81168114611279575f80fd5b809150509250925092565b602080825282518282018190525f9190848201906040850190845b818110156111535783518352928401929184019160010161129f565b634e487b7160e01b5f52604160045260245ffd5b634e487b7160e01b5f52601160045260245ffd5b8082018082111561042d5761042d6112cf565b8181038181111561042d5761042d6112cf565b634e487b7160e01b5f52603260045260245ffd5b5f6001820161132e5761132e6112cf565b5060010190565b60208082526011908201527011185d185cd95d081b9bdd08199bdd5b99607a1b60408201526060019056fea2646970667358221220f2f050ae05f05a80c03c07050314f7290821b73a8c5784f32b0fd52edcb5c56064736f6c63430008140033",
  "linkReferences": {},
  "deployedLinkReferences": {},
  "immutableReferences": {},
  "inputSourceName": "project/contracts/DARARegistry.sol",
  "buildInfoId": "solc-0_8_20-60aa20fccfedd320b0822fa3fac9e56bea75914d"
}